:100000000C9434000C943E000C943E000C943E0082
:100010000C943E000C943E000C943E000C943E0068
:100020000C943E000C943E000C943E000C943E0058
:100030000C943E000C943E000C943E000C943E0048
:100040000C943E000C943E000C943E000C943E0038
:100050000C943E000C943E000C943E000C943E0028
:100060000C943E000C943E0011241FBECFEFD8E04C
:10007000DEBFCDBF0E9440000C9452000C940000E3
:10008000259A1C9A90E21C99FECF85B1892785B9E3
:100090002FEF33ED80E3215030408040E1F700C086
:0800A0000000F1CFF894FFCF3E
:00000001FF
