:100000000C9434000C9446000C9446000C9446006A
:100010000C9446000C9446000C9446000C94460048
:100020000C9446000C9446000C9446000C94460038
:100030000C9446000C9446000C9446000C94460028
:100040000C9446000C9446000C9446000C94460018
:100050000C9446000C9446000C9446000C94460008
:100060000C9446000C94460011241FBECFEFD8E03C
:10007000DEBFCDBF21E0A0E0B1E001C01D92A43001
:10008000B207E1F70E9454000C9499000C94000010
:100090001BB8009741F02BB1220F2BB92BB12F5F6A
:1000A0002BB90197C1F708958FEF8AB981E090E0ED
:1000B0009093010180930001C1E0D0E080910201A2
:1000C000909103010E9448002FEF89E698E12150AA
:1000D00080409040E1F700C00000809100019091C5
:1000E0000101892B51F08091020190910301019649
:1000F000909303018093020109C0809102019091C5
:100100000301019790930301809302018091020102
:10011000909103018830910529F410920101109209
:100120000001CCCF892B51F6D0930101C09300017F
:06013000C5CFF894FFCFDB
:00000001FF
