:100000000C9434000C943E000C943E000C943E0082
:100010000C943E000C943E000C943E000C943E0068
:100020000C943E000C943E000C943E000C943E0058
:100030000C943E000C943E000C943E000C943E0048
:100040000C943E000C943E000C943E000C943E0038
:100050000C943E000C943E000C943E000C943E0028
:100060000C943E000C943E0011241FBECFEFD8E04C
:10007000DEBFCDBF0E9440000C945C000C940000D9
:1000800080E284B980E185B990E31C99FECF95B9EF
:100090002FEF39E648E1215030404040E1F700C001
:1000A000000085B92FEF33ED40E321503040404050
:0C00B000E1F700C00000E9CFF894FFCF9A
:00000001FF
