:100000000C945E000C9486000C9486000C94860080
:100010000C9486000C9486000C9486000C94860048
:100020000C9486000C9486000C9486000C94860038
:100030000C9486000C9486000C9486000C94860028
:100040000C94BD020C9486000C9486000C948600DF
:100050000C9486000C9486000C9486000C94860008
:100060000C9486000C948600000000080002010039
:100070000003040700000000000000000102040863
:100080001020408001020408102001020408102002
:10009000040404040404040402020202020203032E
:1000A0000303030300000000250028002B000000CC
:1000B0000000240027002A0032013A0111241FBE4B
:1000C000CFEFD8E0DEBFCDBF21E0A6E0B1E001C0B8
:1000D0001D92A632B207E1F711E0A0E0B1E0EEEE2A
:1000E000FAE002C005900D92A630B107D9F710E0F2
:1000F000CAEBD0E004C02297FE010E943804C83B3E
:10010000D107C9F70E9426040C946A050C940000DC
:1001100086E091E00E949C0186E091E00C94A901A8
:10012000CF92DF92EF92FF92CF93C0E06C01EE246A
:10013000D7FCE094FE2C40E06C2F8FEF0E94B402BD
:100140009B01AC0160E070E086E091E00E946C02EF
:1001500086E091E00E94A901C701B6010E942A032E
:10016000CF5FCF3F41F740E06EEF8C2F0E94B4028B
:100170009B01AC0160E070E086E091E00E946C02BF
:1001800086E091E00E94A901C701B6010E942A03FE
:10019000C15049F74C2F6EEF81E00E94B4029B01E1
:1001A000AC0160E070E086E091E00E946C0286E0C5
:1001B00091E00E94A901C701B6010E942A03CF5F06
:1001C000CF3F41F74EEF6C2F81E00E94B4029B01BC
:1001D000AC0160E070E086E091E00E946C0286E095
:1001E00091E00E94A901C701B6010E942A03C150F3
:1001F00049F74EEF61E08C2F0E94B4029B01AC01E5
:1002000060E070E086E091E00E946C0286E091E0A0
:100210000E94A901C701B6010E942A03CF5FCF3F08
:1002200041F74C2F61E08EEF0E94B4029B01AC01BC
:1002300060E070E086E091E00E946C0286E091E070
:100240000E94A901C701B6010E942A03C15049F7C3
:10025000CF91FF90EF90DF90CF90089589E190E0EB
:100260000C94900023E042E068E070E086E091E0CA
:100270000C943E0186E091E00C948D01FF920F9367
:100280001F93CF93DF93EC01F22E798368838B0168
:10029000000F111F060F171F1B830A834C831D823B
:1002A0002B871C861D861E861F8650E0FA01E057AC
:1002B000FF4FE491F0E0EE0FFF1FEC55FF4F8591EB
:1002C0009491998B888BFA01E458FF4F44914A8BA3
:1002D000C8010E943C049F838E83009729F0A801E7
:1002E00060E070E00E946305F0FE04C081E0888752
:1002F00019860BC0F2FE06C081E0888782E08987FC
:100300001A8605C0188681E0898782E08A87DF9196
:10031000CF911F910F91FF900895CF93DF93EC0140
:100320008E819F81009711F00E94D40460E08C813F
:10033000DF91CF910C94B603CF93DF93EC0161E092
:100340008C810E94B60360E08C81DF91CF910C9488
:10035000EF03CF92DF92EF92FF920F931F93CF9311
:10036000DF93CDB7DEB729970FB6F894DEBF0FBE87
:10037000CDBF8C01DC0116968D919C911797892B2E
:1003800009F49BC00E940703F801C484D584E68465
:10039000F7846C197D098E099F0962337105810507
:1003A000910580F3F894828193819A838983A68151
:1003B000B7817D01EFEFEE1AFE0A8C918987D80193
:1003C0001B969C911B9750960D90BC91A02DF80107
:1003D000828991FF2EC09C91982B98879C91809543
:1003E00089238F838F818E8388E08D8358856F81E9
:1003F00049853D812E8189819A81F7015C9347FD72
:10040000252F3A952C93262F39F0441F00C0000069
:100410006C93000000C0F2CF38E041916C93000073
:10042000019761F7F801B18BA08B49873D832E833B
:1004300038C09C91982B98879C91809589238F83B5
:100440008F818C8388E08B8358856F8149853B81C0
:100450002C8189819A81F7015C9347FD252F00C08B
:1004600000C02C9300C000C000C000C000C06C934E
:100470000000262F3A9541F0441F000000C000C044
:1004800000C000C000C0E8CF38E0419100C06C93CC
:1004900000C0019709F7F801B18BA08B49873B8316
:1004A0002C839A83898378940E940703D8011C9631
:1004B0006D937D938D939C931F9729960FB6F89417
:1004C000DEBF0FBECDBFDF91CF911F910F91FF9087
:1004D000EF90DF90CF900895CF92DF92EF92FF924E
:1004E0000F931F93CF93DF93FC0180819181681755
:1004F000790788F5CA01AA27BB27082FC32ED42E57
:10050000E52EFF241C2DD22FC581CC2361F08C9FBA
:10051000C0011124092FCC9E600111241D2D2C9F98
:1005200090011124D32F9B01220F331F260F371F59
:1005300086819781820F931F2085DC01A20FB11D58
:100540000C932185DC01A20FB11D1C932285FC01B7
:10055000E20FF11DD083DF91CF911F910F91FF909A
:10056000EF90DF90CF900895962F50E060E070E01C
:10057000592B682BCB01BA0108951F920F920FB629
:100580000F9211242F933F938F939F93AF93BF9319
:1005900080911A0190911B01A0911C01B0911D0145
:1005A0003091190123E0230F2D3720F40196A11D6E
:1005B000B11D05C026E8230F0296A11DB11D209391
:1005C000190180931A0190931B01A0931C01B09311
:1005D0001D0180911E0190911F01A0912001B091F9
:1005E00021010196A11DB11D80931E0190931F0151
:1005F000A0932001B0932101BF91AF919F918F9162
:100600003F912F910F900FBE0F901F9018953FB7FD
:10061000F89480911E0190911F01A0912001B0914A
:10062000210126B5A89B05C02F3F19F00196A11DF9
:10063000B11D3FBF6627782F892F9A2F620F711D3A
:10064000811D911D42E0660F771F881F991F4A95F3
:10065000D1F70895CF92DF92EF92FF92CF93DF937D
:100660006B017C010E940703EB01C114D104E1047A
:10067000F10489F00E9435040E9407036C1B7D0B76
:10068000683E734090F381E0C81AD108E108F10890
:10069000C851DC4FEACFDF91CF91FF90EF90DF9010
:1006A000CF900895789484B5826084BD84B58160CC
:1006B00084BD85B5826085BD85B5816085BDEEE66A
:1006C000F0E0808181608083E1E8F0E01082808149
:1006D00082608083808181608083E0E8F0E08081B7
:1006E00081608083E1EBF0E0808184608083E0EBD7
:1006F000F0E0808181608083EAE7F0E080818460BF
:10070000808380818260808380818160808380811A
:10071000806880831092C1000895833081F028F4AE
:10072000813099F08230A1F008958730A9F08830A7
:10073000B9F08430D1F4809180008F7D03C0809126
:1007400080008F7780938000089584B58F7702C0F2
:1007500084B58F7D84BD08958091B0008F7703C0EC
:100760008091B0008F7D8093B0000895CF93DF9388
:1007700090E0FC01E458FF4F2491FC01E057FF4F4B
:100780008491882349F190E0880F991FFC01E2557C
:10079000FF4FA591B4918C559F4FFC01C591D49109
:1007A0009FB7611108C0F8948C91209582238C9397
:1007B000888182230AC0623051F4F8948C91322FE0
:1007C000309583238C938881822B888304C0F8948E
:1007D0008C91822B8C939FBFDF91CF9108950F93C3
:1007E0001F93CF93DF931F92CDB7DEB7282F30E052
:1007F000F901E859FF4F8491F901E458FF4F149132
:10080000F901E057FF4F04910023C9F0882321F03C
:1008100069830E948D036981E02FF0E0EE0FFF1FD6
:10082000EC55FF4FA591B4919FB7F8948C9161114D
:1008300003C01095812301C0812B8C939FBF0F9023
:10084000DF91CF911F910F91089508950E94520357
:100850000E9425040E948800C0E0D0E00E942E0182
:100860002097E1F30E940000F9CF0895EE0FFF1FDB
:100870000590F491E02D0994CF93DF938230910598
:1008800010F482E090E0E0912401F091250120E055
:1008900030E0A0E0B0E0309739F140815181481755
:1008A0005907B8F04817590771F48281938110975E
:1008B00029F013969C938E9312972CC09093250148
:1008C0008093240127C02115310531F042175307C9
:1008D00018F0A901DB0101C0EF019A01BD01DF01A0
:1008E0000280F381E02DD7CF21153105F9F0281BC7
:1008F000390B2430310580F48A819B8161157105A3
:1009000021F0FB019383828304C09093250180939F
:100910002401FE01329644C0FE01E20FF31F8193D1
:10092000919322503109398328833AC020912201C2
:1009300030912301232B41F42091020130910301D6
:100940003093230120932201209100013091010175
:100950002115310541F42DB73EB740910401509166
:100960000501241B350BE0912201F0912301E217D0
:10097000F307A0F42E1B3F0B2817390778F0AC01C2
:100980004E5F5F4F2417350748F04E0F5F1F50939F
:100990002301409322018193919302C0E0E0F0E0B3
:1009A000CF01DF91CF910895CF93DF93009709F4A2
:1009B00087C0FC01329713821282C0912401D0912A
:1009C0002501209781F420813181280F391F8091E2
:1009D0002201909123018217930779F5F093230167
:1009E000E09322016DC0DE0120E030E0AE17BF07CA
:1009F00050F412964D915C9113979D01411551054C
:100A000009F1DA01F3CFB383A28340815181840FCE
:100A1000951F8A179B0771F48D919C911197840FF4
:100A2000951F02969183808312968D919C911397C6
:100A3000938382832115310529F4F0932501E093F6
:100A400024013EC0D9011396FC93EE9312974D9169
:100A50005D91A40FB51FEA17FB0779F4808191819E
:100A6000840F951F0296D90111969C938E938281D3
:100A7000938113969C938E931297E0E0F0E08A8125
:100A80009B81009719F0FE01EC01F9CFCE0102968F
:100A900028813981820F931F2091220130912301F7
:100AA0002817390769F4309729F41092250110921C
:100AB000240102C013821282D0932301C093220129
:100AC000DF91CF910895DC0101C06D9341505040FA
:100AD000E0F7089510E0CAEBD0E004C0FE010E94E8
:0E0AE00038042296CC3BD107C9F7F894FFCF1B
:060AEE000000260180005B
:00000001FF
