:100000000C9463000C948B000C948B000C948B006C
:100010000C948B000C948B000C948B000C948B0034
:100020000C948B000C948B000C948B000C948B0024
:100030000C948B000C948B000C948B000C948B0014
:100040000C94E3030C948B000C9414050C9462053F
:100050000C948B000C948B000C948B000C948B00F4
:100060000C948B000C948B000000000024002700EF
:100070002A0000000000250028002B0000000000DE
:1000800023002600290004040404040404040202DA
:100090000202020203030303030301020408102007
:1000A0004080010204081020010204081020000012
:1000B0000007000201000003040600000000000029
:1000C00000008D00CE0611241FBECFEFD8E0DEBFAA
:1000D000CDBF11E0A0E0B1E0E2E9F3E102C005909C
:1000E0000D92A03AB107D9F712E0A0EAB1E001C041
:1000F0001D92A735B107E1F710E0C6ECD0E004C0CF
:100100002297FE010E94C309C23CD107C9F70E9491
:1001100024070C94C7090C94000081EA91E068E080
:1001200040E45FEE0E94840208956F927F928F9266
:100130009F92AF92BF92CF92DF92EF92FF920F9376
:100140001F93CF93DF9385E392E00E942406181655
:1001500019060CF06FC185E392E00E943506982FD6
:100160008093A001843609F076C085E392E060E0D8
:1001700071E00E94970885E392E00E9461093B01CB
:100180004C010894610871088108910885E392E0A8
:1001900040E050E060E070E02AE030E00E940508B6
:1001A00085E392E06FE071E00E94940885E392E0BD
:1001B00069E00E948E06C0E0D0E0AA24BB2465015D
:1001C000EE24FF24870181EA91E0B801A7010E9493
:1001D0001903682F85E392E040E150E00E94420855
:1001E000C730D10511F588E090E0A0E0B0E0A80E9E
:1001F000B91ECA1EDB1E85E392E00E94650785E3F7
:1002000092E0B601A5012AE030E00E94050885E3EE
:1002100092E062E171E00E94940885E392E069E077
:100220000E948E06C0E0D0E006C0219685E392E0F1
:1002300069E00E948E060894E11CF11C011D111D4D
:100240006E147F048006910608F0BDCF85E392E02E
:100250000E946507E9C08536A9F485E392E064E170
:1002600071E00E94940881EA91E00E94D30281EA41
:1002700091E00E94B0028823D1F785E392E06CE21E
:1002800071E074C0893691F485E392E061E371E036
:100290000E94940881EA91E00E945003BC0185E32A
:1002A00092E040E150E00E942508BEC080538A30B1
:1002B00050F585E392E06CE371E00E94940885E3D9
:1002C00092E06091A0010E945D0785E392E068E4FE
:1002D00071E00E9494081091A0010E942B0460FD1F
:1002E00002C02BEB01C02AEA412F552747FD50954C
:1002F00040535040662757FD6095762F81EA91E084
:100300000E94E00291C09737A1F585E392E00E9438
:100310006109D62E85E392E00E9461097B018C0180
:1003200085E392E00E946109EB01E60EF71E089456
:10033000E108F1088B010AC0A80160E070E00F5FDE
:100340001F4F81EA91E02D2D0E94E002E016F10698
:1003500098F7EC1AFD0A85E392E0B7014AE050E015
:100360000E94140885E392E06AE471E00E94970815
:100370005BC09634D9F50E942B045B016C0185E3C8
:1003800092E069E571E00E949708EE24FF2487015E
:1003900081EA91E0B801A7012E2D0E94E0020894A5
:1003A000E11CF11C011D111D90E0E91690E0F90619
:1003B00090E2090790E0190759F70E942B04AB015E
:1003C000BC014A195B096C097D0985E392E02AE0CA
:1003D00030E00E94540885E392E067E671E00E94F5
:1003E000970885E392E06AE671E0C0CF9237E1F4C6
:1003F000EE24FF24870181EA91E0B801A7010E9461
:100400001903682F85E392E00E948E060894E11C90
:10041000F11C011D111DA1E0EA16A4E0FA06A0E0FE
:100420000A07A0E01A0739F785E392E00E94550613
:100430008093A0010E942B04E0908B01F0908C012E
:1004400000918D0110918E0124EF31E040E050E0E9
:100450000E948409442737FD4095542FE216F30685
:100460000407150714F50894E11CF11C011D111D6A
:10047000E0928B01F0928C0100938D0110938E011C
:1004800089E061E00E94740460918B0170918C019D
:1004900080918D0190918E0122E030E040E050E0AB
:1004A0000E94A60989E00E94E004DF91CF911F918C
:1004B0000F91FF90EF90DF90CF90BF90AF909F9003
:1004C0008F907F906F90089585E392E040E052EC2A
:1004D00061E070E00E949D0585E392E06EE671E0C8
:1004E0000E94940881EA91E00E947903882329F010
:1004F00085E392E067E771E004C085E392E060E89D
:1005000071E00E9497080895FC0160835283418343
:100510000895FC01808161E00E94E00478940895D0
:10052000FC01F894808160E00E94E00408951F932C
:10053000CF93DF93EC010E94900285E08EBD0DB455
:1005400007FEFDCF8EB51EBC0DB407FEFDCF1EB558
:10055000CE010E948902812FDF91CF911F910895D2
:100560000E949702817008951F93CF93DF93EC014F
:10057000162F442339F066E040E00E94B402CE0119
:100580000E948902CE010E94B0028823D9F7CE01D1
:100590000E9490021EBD0DB407FEFDCF8EB5DF9107
:1005A000CF911F9108950F931F938C0160E641E056
:1005B0000E94B402C8010E9489021F910F91089500
:1005C000DF92EF92FF920F931F93CF93DF93EC0193
:1005D0007A018B01D22E62E041E00E94B402C80190
:1005E000BB2797FDB095AB2F8EBD0DB407FEFDCF99
:1005F0008EB5BB2717FDBA95A12F902F8F2D8EBDDD
:100600000DB407FEFDCF8EB5EEBC0DB407FEFDCFD9
:100610008EB5DEBC0DB407FEFDCF8EB5CE010E94B7
:100620008902DF91CF911F910F91FF90EF90DF90A2
:100630000895EF92FF920F931F93CF93DF93EC01F6
:100640007A018B0163E040E00E94B402C801BB273D
:1006500097FDB095AB2F8EBD0DB407FEFDCF8EB5C7
:10066000BB2717FDBA95A12F902F8F2D8EBD0DB4EE
:1006700007FEFDCF8EB5EEBC0DB407FEFDCF8EB5E7
:100680001EBC0DB407FEFDCF1EB5CE010E9489022F
:10069000812FDF91CF911F910F91FF90EF900895DF
:1006A000EF92FF920F931F93CF93DF93EC010E9481
:1006B00090028FE98EBD0DB407FEFDCF8EB51EBC36
:1006C0000DB407FEFDCF8EB51EBC0DB407FEFDCFE9
:1006D000EEB4182F00E0CE010E948902FF24E02A28
:1006E000F12AC701DF91CF911F910F91FF90EF90F9
:1006F0000895CF93DF93EC01888161E00E94740438
:10070000CE010E94890280E00E94B60381E00E942F
:10071000AD0384E00E94BB030E94CC0389819A81CF
:10072000892B51F0CE010E94500329813A81821712
:10073000930711F080E00EC0CE0161E041E00E941D
:10074000B4021EBC0DB407FEFDCF8EB5CE010E94D3
:10075000890281E0DF91CF910895882319F48CB547
:10076000806202C08CB58F7D8CBD08959CB5937F4F
:10077000982B9CBD08952CB5382F33702C7F322BCD
:100780003CBD2DB590E095958795959587958170A1
:100790002E7F822B8DBD08958AE061E00E94E004E7
:1007A0008AE061E00E9474048CB580618CBD8CB5D8
:1007B00080648CBD8DE061E00E9474048BE061E098
:1007C0000E94740408951F920F920FB60F92112485
:1007D0002F933F938F939F93AF93BF938091A801E3
:1007E0009091A901A091AA01B091AB013091AC0107
:1007F0000196A11DB11D232F2D5F2D3720F02D5700
:100800000196A11DB11D2093AC018093A801909386
:10081000A901A093AA01B093AB018091A40190918A
:10082000A501A091A601B091A7010196A11DB11D3E
:100830008093A4019093A501A093A601B093A70172
:10084000BF91AF919F918F913F912F910F900FBECC
:100850000F901F9018958FB7F8942091A8013091B0
:10086000A9014091AA015091AB018FBFB901CA0102
:100870000895789484B5826084BD84B5816084BD18
:1008800085B5826085BD85B5816085BDEEE6F0E009
:10089000808181608083E1E8F0E010828081826065
:1008A0008083808181608083E0E8F0E080818160E6
:1008B0008083E1EBF0E0808184608083E0EBF0E016
:1008C000808181608083EAE7F0E0808184608083BA
:1008D0008081826080838081816080838081806864
:1008E00080831092C1000895CF93DF93482F50E08A
:1008F000CA0186569F4FFC0134914A575F4FFA0157
:100900008491882369F190E0880F991FFC01E859D0
:10091000FF4FA591B491FC01EE58FF4FC591D491C2
:10092000662351F42FB7F8948C91932F90958923D7
:100930008C93888189230BC0623061F42FB7F894BF
:100940008C91932F909589238C938881832B888316
:100950002FBF06C09FB7F8948C91832B8C939FBFB9
:10096000DF91CF910895833071F0843028F4813085
:10097000A1F0823021F514C08630B1F08730D1F07B
:100980008430E9F404C0809180008F7703C08091A7
:1009900080008F7D80938000089584B58F7702C09A
:1009A00084B58F7D84BD08958091B0008F7780934A
:1009B000B00008958091B0008F7D8093B0000895BD
:1009C000FF920F931F93F62E482F50E0CA018255D5
:1009D0009F4FFC012491CA0186569F4FFC01149140
:1009E0004A575F4FFA0104910023C9F0222319F0FE
:1009F000822F0E94B304E02FF0E0EE0FFF1FEE58AD
:100A0000FF4FA591B4919FB7F894FF2021F48C91EA
:100A10001095812302C08C91812B8C939FBF1F91D5
:100A20000F91FF90089508951F920F920FB60F92A5
:100A300011242F933F934F938F939F93EF93FF93A3
:100A40008091C00082FD1DC04091C6002091ED0143
:100A50003091EE012F5F3F4F2F7330708091EF0187
:100A60009091F0012817390771F0E091ED01F091B4
:100A7000EE01E355FE4F40833093EE012093ED01EC
:100A800002C08091C600FF91EF919F918F914F918D
:100A90003F912F910F900FBE0F901F901895E091EE
:100AA0004102F0914202E05CFF4F819191912081DF
:100AB0003181821B930B8F739070892B11F00E94F0
:100AC000130508951F920F920FB60F9211242F93C2
:100AD0003F938F939F93EF93FF9320913102309137
:100AE000320280913302909134022817390731F491
:100AF0008091C1008F7D8093C10014C0E0913302CA
:100B0000F0913402EF50FE4F20818091330290919A
:100B1000340201968F739070909334028093330265
:100B20002093C600FF91EF919F918F913F912F915C
:100B30000F900FBE0F901F901895AF92BF92DF924B
:100B4000EF92FF920F931F93CF93DF93EC017A0103
:100B50008B01DD24403081EE580780E0680780E09B
:100B6000780711F0DD24D39491E0A92EB12CEC8903
:100B7000FD89DD2069F0C50108A002C0880F991F1A
:100B80000A94E2F7808360E079E08DE390E005C0AD
:100B9000108260E874E88EE190E0A80197010E945D
:100BA0008409215030404040504056954795379534
:100BB000279580E12030380720F0DD2011F0DD247A
:100BC000D6CFE889F9893083EA89FB89208319A285
:100BD000EE89FF89408121E030E0C9010C8C02C020
:100BE000880F991F0A94E2F7482B4083EE89FF890A
:100BF0004081C9010D8C02C0880F991F0A94E2F749
:100C0000482B4083EE89FF894081C9010E8C02C0C8
:100C1000880F991F0A94E2F7482B4083EE89FF89D9
:100C200080810F8C02C0220F331F0A94E2F72095B7
:100C300028232083DF91CF911F910F91FF90EF9098
:100C4000DF90BF90AF900895DC011C96ED91FC9170
:100C50001D97E05CFF4F2191319180819181281B8C
:100C6000390B2F733070C9010895DC011C96ED918A
:100C7000FC911D97E05CFF4F20813181E054F040F2
:100C8000DF01AE5BBF4F8D919C91119728173907FB
:100C900019F42FEF3FEF07C08D919C91E80FF91FDA
:100CA0008081282F30E0C9010895DC011C96ED9168
:100CB000FC911D97E05CFF4F20813181E054F040B2
:100CC000DF01AE5BBF4F8D919C91119728173907BB
:100CD00019F42FEF3FEF10C08D919C911197E80F01
:100CE000F91F20818D919C91119701968F739070BF
:100CF00011969C938E9330E0C9010895DC01919682
:100D00008C919197882339F05496ED91FC915597E9
:100D1000808186FFF9CF91961C920895CF93DF933F
:100D2000EC01EE85FF85E05CFF4F20813181E054CE
:100D3000F0402F5F3F4F2F733070DF01AE5BBF4F2E
:100D40008D919C91119728173907D1F3E05CFF4FE3
:100D500080819181E054F040E80FF91F6083EE85B7
:100D6000FF85E05CFF4F31832083EE89FF8920817E
:100D700081E090E00F8C02C0880F991F0A94E2F77F
:100D8000282B208381E089A3EC89FD898081806400
:100D9000808381E090E0DF91CF9108951092380236
:100DA0001092370288EE93E0A0E0B0E08093390221
:100DB00090933A02A0933B02B0933C0283E991E006
:100DC00090933602809335028DEA91E0909342022F
:100DD0008093410281EF91E090934402809343021B
:100DE00085EC90E0909346028093450284EC90E07D
:100DF000909348028093470280EC90E090934A02DF
:100E00008093490281EC90E090934C0280934B02D6
:100E100082EC90E090934E0280934D0286EC90E03D
:100E20009093500280934F0284E08093510283E0BC
:100E30008093520287E08093530285E080935402AE
:100E400081E0809355020895CF93DF930E94390487
:100E50000E946402CFE4D5E00E9495002097E1F360
:100E60000E944F05F9CFCF92DF92EF92FF920F933E
:100E70001F93CF93DF937C016B018A01C0E0D0E028
:100E80000FC0D6016D916D01D701ED91FC910190DC
:100E9000F081E02DC7010995C80FD91F01501040FE
:100EA0000115110571F7CE01DF91CF911F910F91BF
:100EB000FF90EF90DF90CF900895DC01ED91FC91D1
:100EC0000190F081E02D09950895EF92FF920F9324
:100ED0001F938C01DC01ED91FC910190F081E02DDC
:100EE0006DE009957C01D801ED91FC910190F081B4
:100EF000E02DC8016AE009959C012E0D3F1DC90136
:100F00001F910F91FF90EF900895CF93DF93EC0125
:100F10006115710519F420E030E00FC0DB010D9080
:100F20000020E9F71197A61BB70BE881F981028031
:100F3000F381E02DAD0109959C01C901DF91CF91AD
:100F400008954F925F927F928F929F92AF92BF923D
:100F5000CF92DF92EF92FF920F931F93DF93CF9385
:100F6000CDB7DEB7A1970FB6F894DEBF0FBECDBFE9
:100F70002C01742ECB01223008F42AE019A231E2B0
:100F8000C32ED12CCC0EDD1E822E9924AA24BB2484
:100F9000672D752FA50194010E94840979018A01AA
:100FA000C801B701A50194010E946509472D461BA0
:100FB0000894C108D1084A3014F4405D01C0495C6E
:100FC000F6014083E114F1040105110521F07E2CA6
:100FD0005F2DC801DDCFC201B6010E948507A19631
:100FE0000FB6F894DEBF0FBECDBFCF91DF911F913A
:100FF0000F91FF90EF90DF90CF90BF90AF909F90B8
:101000008F907F905F904F900895DC0121153105FE
:1010100041F4ED91FC910190F081E02D642F099550
:1010200008950E94A1070895EF92FF920F931F93D6
:101030009A017B0100E010E0B801A7010E940508B9
:101040001F910F91FF90EF900895CF92DF92EF9252
:10105000FF920F931F936C017B019A0100E010E057
:10106000B801A7010E9405088C01C6010E9465070E
:10107000080F191FC8011F910F91FF90EF90DF908B
:10108000CF900895EF92FF920F931F939A01E62E4F
:10109000FF2400E010E0B801A7010E9405081F919D
:1010A0000F91FF90EF900895CF92DF92EF92FF9211
:1010B0000F931F93CF93DF93EC016A017B012115FE
:1010C000310541F4E881F9810190F081E02D642F30
:1010D00009951FC02A303105D1F477FF17C0E88188
:1010E000F9810190F081E02D6DE209958C01442792
:1010F0005527BA014C195D096E097F09CE012AE016
:101100000E94A1079801280F391F04C02AE00E94FD
:10111000A1079C01C901DF91CF911F910F91FF9011
:10112000EF90DF90CF9008950E9485070895EF9289
:10113000FF920F931F937C010E9485078C01C701CA
:101140000E946507080F191FC8011F910F91FF909A
:10115000EF900895CF93DF93EC010E942B046887F2
:1011600079878A879B87E881F9810084F185E02D62
:10117000CE0109959C0197FF15C00E942B0428857C
:1011800039854A855B85621B730B840B950B2C811B
:101190003D814E815F81621773078407950718F3BD
:1011A0002FEF3FEFC901DF91CF910895CF93DF93E8
:1011B000EC01CE010E94AA089C0197FD0EC08D3261
:1011C000910559F0C0970A9740F0E881F9810680AF
:1011D000F781E02DCE010995ECCFC901DF91CF91C8
:1011E00008959F92AF92BF92CF92DF92EF92FF92BB
:1011F0000F931F93CF93DF936C01B62E0E94D608F6
:10120000EC0197FF04C0EE24FF2487014CC0992411
:10121000EE24FF248701AB2CBB24A7FCB094CA1595
:10122000DB0529F1CD32D10519F4992493941FC01F
:10123000CE01C0970A97D8F4C801B7012AE030E080
:1012400040E050E00E9465097B018C01CE01AA2795
:1012500097FDA095BA2FE80EF91E0A1F1B1F80EDFF
:101260009FEFAFEFBFEFE80EF91E0A1F1B1FD6015D
:10127000ED91FC910680F781E02DC6010995C6012C
:101280000E94AA08EC01C0970A9748F2CA15DB052C
:1012900031F2992041F010950095F094E094E11C12
:1012A000F11C011D111DB701C801DF91CF911F91E4
:1012B0000F91FF90EF90DF90CF90BF90AF909F90F5
:1012C000089561E00E94F1080895629FD001739F24
:1012D000F001829FE00DF11D649FE00DF11D929FD2
:1012E000F00D839FF00D749FF00D659FF00D992711
:1012F000729FB00DE11DF91F639FB00DE11DF91F35
:10130000BD01CF0111240895A1E21A2EAA1BBB1B17
:10131000FD010DC0AA1FBB1FEE1FFF1FA217B307C1
:10132000E407F50720F0A21BB30BE40BF50B661FD7
:10133000771F881F991F1A9469F76095709580959B
:1013400090959B01AC01BD01CF01089597FB092E3B
:1013500005260ED057FD04D0D7DF0AD0001C38F484
:1013600050954095309521953F4F4F4F5F4F0895D1
:10137000F6F790958095709561957F4F8F4F9F4FB1
:101380000895EE0FFF1F0590F491E02D0994F89455
:02139000FFCF8D
:10139200466C61736820636F6E74656E743A003ACE
:1013A20020003A0045726173696E6720466C617372
:1013B200682063686970202E2E2E2000444F4E450F
:1013C2000044657669636549443A20000A577269A8
:1013D2007465427974652800290020627974657306
:1013E200207772697474656E0046696C6C20737440
:1013F200617274656421006D73004F6B2100537438
:101402006172742E2E2E00496E6974204F4B21009A
:10141200496E6974204641494C2100FFFFFFFF00DD
:101422000000008E0633072406550635067E0600A8
:00000001FF
