:100000000C94E2020C940A030C940A030C940A0365
:100010000C940A030C940A030C940A030C940A032C
:100020000C940A030C940A030C940A030C940A031C
:100030000C940A030C940A030C940A030C940A030C
:100040000C94050D0C940A030C94BC0E0C940A0F2E
:100050000C940A030C940A030C940A030C940A03EC
:100060000C940A030C940A0300000000003E5B4F4E
:100070005B3E3E6B4F6B3E1C3E7C3E1C183C7E3C08
:10008000181C577D571C1C5E7F5E1C00183C180016
:10009000FFE7C3E7FF0018241800FFE7DBE7FF30A6
:1000A000483A060E2629792926407F050507407F14
:1000B00005253F5A3CE73C5A7F3E1C1C08081C1C87
:1000C0003E7F14227F22145F5F005F5F06097F017D
:1000D0007F006689956A606060606094A2FFA29468
:1000E00008047E040810207E201008082A1C080836
:1000F0001C2A08081E101010100C1E0C1E0C303884
:100100003E3830060E3E0E06000000000000005F84
:1001100000000007000700147F147F14242A7F2AA0
:100120001223130864623649562050000807030062
:10013000001C2241000041221C002A1C7F1C2A08AE
:10014000083E080800807030000808080808000011
:1001500060600020100804023E5149453E00427F85
:10016000400072494949462141494D331814127FD4
:100170001027454545393C4A494931412111090774
:100180003649494936464949291E000014000000F5
:1001900040340000000814224114141414140041C7
:1001A00022140802015909063E415D594E7C121184
:1001B000127C7F494949363E414141227F414141BC
:1001C0003E7F494949417F090909013E4141517337
:1001D0007F0808087F00417F41002040413F017FA8
:1001E000081422417F404040407F021C027F7F0470
:1001F00008107F3E4141413E7F090909063E4151B9
:10020000215E7F09192946264949493203017F01A8
:10021000033F4040403F1F2040201F3F4038403FA9
:10022000631408146303047804036159494D4300BF
:100230007F4141410204081020004141417F0402F6
:10024000010204404040404000030708002054548D
:1002500078407F284444383844444428384444286B
:100260007F385454541800087E090218A4A49C78BE
:100270007F0804047800447D40002040403D007F1A
:100280001028440000417F40007C047804787C08FA
:100290000404783844444438FC18242418182424CE
:1002A00018FC7C08040408485454542404043F44B3
:1002B000243C4040207C1C2040201C3C4030403CE2
:1002C00044281028444C9090907C4464544C440042
:1002D00008364100000077000000413608000201A6
:1002E0000204023C2623263C1EA1A161123A404092
:1002F000207A385454555921555579412154547810
:1003000041215554784020545579400C1E527212A8
:100310003955555559395454545939555454580030
:1003200000457C410002457D420001457C40F029AA
:100330002429F0F0282528F07C54554500205454F9
:100340007C547C0A097F493249494932324848483D
:1003500032324A4848303A4141217A3A4240207884
:10036000009DA0A07D39444444393D4040403D3C7F
:1003700024FF2424487E4943662B2FFC2F2BFF09A2
:1003800029F620C0887E0903205454794100004496
:100390007D413048484A32384040227A007A0A0A81
:1003A000727D0D19317D2629292F282629292926F4
:1003B00030484D4020380808080808080808382F39
:1003C00010C8ACBA2F102834FA00007B00000814C3
:1003D0002A142222142A1408AA005500AAAA55AAEF
:1003E00055AA000000FF00101010FF00141414FFA5
:1003F000001010FF00FF1010F010F0141414FC0097
:100400001414F700FF0000FF00FF1414F404FC14A0
:100410001417101F10101F101F1414141F00101099
:1004200010F0000000001F101010101F101010100E
:10043000F010000000FF101010101010101010FF2E
:1004400010000000FF140000FF00FF00001F101745
:100450000000FC04F414141710171414F404F4002E
:1004600000FF00F714141414141414F700F71414F4
:1004700014171410101F101F141414F4141010F07B
:1004800010F000001F101F0000001F14000000FCEF
:10049000140000F010F01010FF10FF141414FF14DB
:1004A0001010101F00000000F010FFFFFFFFFFF012
:1004B000F0F0F0F0FFFFFF0000000000FFFF0F0F63
:1004C0000F0F0F38444438447C2A2A3E147E02021F
:1004D0000606027E027E0263554941633844443C6D
:1004E00004407E201E2006027E020299A5E7A599FF
:1004F0001C2A492A1C4C7201724C304A4D4D303036
:1005000048784830BC625A463D3E494949007E0120
:1005100001017E2A2A2A2A2A44445F444440514A3F
:10052000444040444A51400000FF0103E080FF0086
:100530000008086B6B083612362436060F090F06C2
:10054000000018180000001010003040FF010100EA
:100550001F01011E00191D1712003C3C3C3C00000D
:1005600000000000000000240027002A0000000016
:1005700000250028002B0000000000230026002991
:10058000000404040404040404020202020202033C
:100590000303030303010204081020408001020446
:1005A00008102001020408102000000007000201CA
:1005B00000000304060000000000000000004103EA
:1005C00076103A0311241FBECFEFD8E0DEBFCDBFB7
:1005D00011E0A0E0B1E0E2EEFCE202C005900D9275
:1005E000AE35B107D9F712E0AEE5B1E001C01D921A
:1005F000AD34B107E1F715E0C2ECD5E004C02297B5
:10060000FE010E941816CE3BD107C9F70E94CC10FC
:100610000C9464160C9400008130910509F56F5F0D
:100620007F4F39F58EE591E060E071E00E94C612DF
:100630008091150190911601059690936601809323
:10064000650187E691E062E046E126E00E94260A25
:1006500085E791E06AE044E021E00E94B509089551
:10066000892B39F46F5F7F4F21F48EE591E00E9472
:10067000F712089580E090E06FEF7FEF0E940C0387
:10068000089581E090E06FEF7FEF0E940C030895E2
:100690006F927F928F929F92AF92BF92CF92DF9292
:1006A000EF92FF920F931F93DF93CF93CDB7DEB7F7
:1006B0002E970FB6F894DEBF0FBECDBF182F092FAF
:1006C00060E071E00E94C61288E060E00E94580E6F
:1006D0001EBC0DB407FEFDCF8EB5FE013196BE01E6
:1006E000615F7F4F1EBC0DB407FEFDCF8EB590E05D
:1006F0009C0144E0359527954A95E1F7A901B3E0BF
:10070000440F551FBA95E1F7220F331F420F531FB5
:100710008F709070480F591F41935193E617F70758
:1007200009F788E061E00E94580E87E691E060E0FA
:100730000E945F0B5B016C0187E691E00E940E0B4B
:100740003B014C01ED80FE808AE0E816F10434F4B0
:10075000812F902F61E071E00E948312812F902FF2
:10076000B7010E943F12812F902F63E071E00E9439
:100770008312EB80FC808AE0E816F10434F4812FC8
:10078000902F61E071E00E948312812F902FB701BA
:100790000E943F12812F902F63E071E00E9483122C
:1007A000E980FA808AE0E816F10434F4812F902F72
:1007B00061E071E00E948312812F902FB7010E94A7
:1007C0003F12812F902F65E071E00E948312E9842F
:1007D000FA848AE0E816F10434F4812F902F61E066
:1007E00071E00E948312812F902FB7010E943F1267
:1007F000812F902F67E071E00E948312EB84FC84CC
:100800008AE0E816F10434F4812F902F61E071E062
:100810000E948312812F902FB7010E943F12812FD7
:10082000902F67E071E00E9483126D857E85812F95
:10083000902F0E943F12812F902F65E071E00E945F
:100840008312C601B5010E94AB149B01AC01812F3C
:10085000902FB9010E943F12812F902F69E071E023
:100860000E948312C401B3010E94AB149B01AC012E
:10087000812F902FB9010E943F12812F902F6DE0A0
:1008800071E00E948312812F902F2E960FB6F8945C
:10089000DEBF0FBECDBFCF91DF911F910F91FF90B3
:1008A000EF90DF90CF90BF90AF909F908F907F9010
:1008B0006F90089588E061E00E94EC0D0E949D0514
:1008C00081E00E948F058CE00E94980588E060E03E
:1008D0000E94580E8EE88EBD0DB407FEFDCF8EB57A
:1008E00080E68EBD0DB407FEFDCF8EB588E061E0D9
:1008F0000E94580E1092C5001092C4006AE070E089
:1009000080E090E00E94810D08956F927F928F9217
:100910009F92AF92BF92CF92EF92FF920F931F934D
:10092000DF93CF93CDB7DEB72E970FB6F894DEBF27
:100930000FBECDBF86E292E00E94CC0F892BB9F0AA
:100940008E010F5F1F4FC80166E272E00E9499118D
:100950008EE591E0B8010E94E012C8010E94F712F2
:1009600086E292E06EE571E00E9459110EC08E01A0
:10097000085F1F4FC8010E9448038EE591E0B8014F
:100980000E94E012C8010E94F7126624772465C015
:1009900085E791E060E070E00E94A6096091650142
:1009A00070916601C3010E94E1154B0185E791E05A
:1009B0000E94A1089C016091650170916601C301CC
:1009C0000E94E1155C01A094B094A20EB31E24C055
:1009D000809162019091630188169906A0F48EE5DA
:1009E00091E0B4010E94B611FC0185E791E0B501E8
:1009F00040E050E0208101E010E0EE24FF24CC2410
:100A0000C3940E945D070894810891088091650154
:100A100090916601A81AB90A8091650190916601CA
:100A20002091150130911601821B930B8A0D9B1D9D
:100A300097FD02C097FECCCF85E791E00E9489091F
:100A40006091130170911401882777FD8095982F8C
:100A50000E94810D0894611C711C209165013091E8
:100A600066018091620190916301289F8001299F16
:100A7000100D389F100D112485E791E00E94A10808
:100A80002091150130911601021B130B01501040EB
:100A9000080F191F6016710608F47ACF2E960FB64C
:100AA000F894DEBF0FBECDBFCF91DF911F910F91A4
:100AB000FF90EF90CF90BF90AF909F908F907F90DE
:100AC0006F9008950F931F9305E711E0C80162E04E
:100AD0000E949909C80160E043E00E94A608C8018D
:100AE00061E043E00E94A608C80162E043E00E9482
:100AF000A608C80163E043E00E94A6080E945A04C9
:100B000087E691E00E94420A86E292E040E855E2E0
:100B100060E070E00E94450F1F910F9108958823B7
:100B200019F48CB5806202C08CB58F7D8CBD0895A0
:100B30009CB5937F982B9CBD08958AE061E00E944C
:100B4000580E8AE061E00E94EC0D8CB580618CBD8E
:100B50008CB580648CBD8DE061E00E94EC0D8BE073
:100B600061E00E94EC0D0895FC011382128281E283
:100B700091E0918380837583648357834683718773
:100B8000608753874287158A1586148617861686CE
:100B900021E0248B8FEF9FEF938B828B918B808B47
:100BA000268B08952F923F924F925F926F927F9281
:100BB0008F929F92AF92BF92CF92DF92EF92FF926D
:100BC0000F931F93DF93CF9300D000D0CDB7DEB744
:100BD0003C017C836B836A015901FA82E9822224F9
:100BE00033249801241B350B37FF03C03095219522
:100BF0003F4FC5014B815C81841B950B97FF03C060
:100C0000909581959F4F821793075CF481E0282E81
:100C1000312CC601CB80DC809C838B83C80185018D
:100C20005C018B819C81A816B90644F4C501AB8098
:100C3000BC809C838B83C80186016C012501AB813C
:100C4000BC814A1A5B0A7801EC18FD08F7FE04C063
:100C5000F094E194F108F394C016D10624F08824AE
:100C60008A94982C03C0B1E08B2E912CC20162E0D3
:100C700070E00E94E1158B0125C0D301ED91FC913C
:100C80002114310441F00480F581E02DC301B60147
:100C90004B815C8107C00480F581E02DC3016B812D
:100CA0007C81A60129813A8109950E191F0917FF38
:100CB00004C0C80CD91C040D151DEB81FC813196B4
:100CC000FC83EB834B815C81A416B506B4F60F90D0
:100CD0000F900F900F90CF91DF911F910F91FF9088
:100CE000EF90DF90CF90BF90AF909F908F907F90CC
:100CF0006F905F904F903F902F9008954F925F922A
:100D00006F927F928F929F92AF92BF92CF92DF921B
:100D1000EF92FF920F931F936C015B014A0139011F
:100D20002801DC01ED91FC910284F385E02D87011F
:100D30000995D601ED91FC91A40141505040440D1C
:100D4000551D0284F385E02DC601B5019301099577
:100D5000D601ED91FC910084F185E02DC601B5012D
:100D6000A40192010995D601ED91FC910894A10886
:100D7000B108A60CB71C0084F185E02DC601B501B1
:100D8000A401920109951F910F91FF90EF90DF90C0
:100D9000CF90BF90AF909F908F907F906F905F901B
:100DA0004F900895CF92DF92EF92FF920F931F938F
:100DB000DC016B017801ED91FC918A01015010403A
:100DC000020F131F0680F781E02D960109951F91F0
:100DD0000F91FF90EF90DF90CF900895CF92DF9228
:100DE000EF92FF920F931F93DC016A01C901780112
:100DF000ED91FC9111979B0121503040280F391F34
:100E00000680F781E02DCD01860109951F910F9194
:100E1000FF90EF90DF90CF9008956F927F928F9226
:100E20009F92AF92BF92CF92DF92EF92FF920F9379
:100E30001F93CF93DF935C013A0169014801EB01F5
:100E4000C60ED71E0DC0D501ED91FC910084F18531
:100E5000E02DC501BE01A3019401870109952196EA
:100E6000CC15DD0584F3DF91CF911F910F91FF9099
:100E7000EF90DF90CF90BF90AF909F908F907F903A
:100E80006F900895EF92FF920F931F93FC017B01E7
:100E9000A081B18120853185028513851E960D9034
:100EA000BC91A02D60E070E040E050E0FD010995AC
:100EB0001F910F91FF90EF9008952F923F924F92C4
:100EC0005F926F927F928F929F92AF92BF92CF92DA
:100ED000DF92EF92FF920F931F93DF93CF93CDB7E3
:100EE000DEB72F970FB6F894DEBF0FBECDBF5C0103
:100EF0005E834D8318870F83FA86E986CB86DC01F3
:100F000018968D919C911997681779070CF0A4C0D9
:100F10001A968D919C911B97481759070CF09CC00D
:100F2000EC2DF0E0FF87EE87CF01880F991F8E0F21
:100F30009F1F880F991F860F971F181619060CF010
:100F40008BC0CF01F3E0880F991FFA95E1F7840F6A
:100F5000951F181619060CF07FC085E0289FA00188
:100F600011245A8349832B011B011C825C8155305B
:100F700011F480E005C0E981FA81E859FF4F8491BE
:100F80002C863D866D807E8043011B82C82EDD2429
:100F900080FF1CC0D501ED91FC91BB85B13049F4B7
:100FA0000480F581E02DC501B201A3012F813885B0
:100FB00022C00684F785E02DC5016C857D85A401DE
:100FC0002E853F858901EF80F88423C0E985FA8565
:100FD0002F813885E217F307E9F0D501ED91FC91F7
:100FE000BB85B13051F40480F581E02DC501B2011B
:100FF000A30129853A8509950DC00684F785E02D62
:10100000C5016C857D85A4012E853F858901E98414
:10101000FA840995EB81EF5FEB832E853F85820E85
:10102000931E0894611C711CE83021F0D594C7947C
:101030008C2DACCF3C813F5F3C834E855F85240E79
:10104000351E0894411C511C89819A8101969A830E
:101050008983363009F08ACF2F960FB6F894DEBF19
:101060000FBECDBFCF91DF911F910F91FF90EF90F9
:10107000DF90CF90BF90AF909F908F907F906F90B8
:101080005F904F903F902F900895CF92EF92FF92F4
:101090000F931F93CF93DF93EC01262F6A3061F4F7
:1010A0002C8930E003E0220F331F0A95E1F78E858B
:1010B0009F85820F931F37C06D30C9F16C857D8588
:1010C0004E855F8508891989EA88FB88CC880E944B
:1010D0005D072C8986E0289FB00111248C859D85B1
:1010E000680F791F7D876C878E89882301F1422FD5
:1010F00050E08AEF9FEF9C01429FC001439F900DFB
:10110000529F900D112428853985820F931F8617D1
:1011100097076CF413E0440F551F1A95E1F78E857D
:101120009F85840F951F9F878E871D861C8681E073
:1011300090E0DF91CF911F910F91FF90EF90CF90B2
:101140000895FC018085918508950895DC015E96DF
:10115000ED91FC915F97E60FF11D40830895CF92CA
:10116000DF92EF92FF921F93CF93DF93EC01542F06
:1011700069019D89992391F0923020F088858150F2
:10118000861B682F892F8150823018F44A85415080
:10119000451B90FF03C0862F642F482F67FD83C037
:1011A000A62FBB27A7FDB095EC80FD80AE15BF052F
:1011B0000CF079C0242F30E08E819F8128173907E9
:1011C0000CF071C01B8D73E0359527957A95E1F78A
:1011D000812F90E0FC012E9FC0012F9F900D3E9F1C
:1011E000900D112453E0B595A7955A95E1F7EC8D34
:1011F000FD8DE80FF91FEA0FFB1F2081362F377096
:101200004770622F70E0EE8DFF8DE60FF71FE081D3
:10121000E23018F087E0831B382F8E2F8150823008
:1012200018F487E0841B482FE0FF03C0832F342F7E
:10123000482FCB01612F70E00E94CD15619F802D5A
:101240001124281B220F220F220F230F660F660F77
:10125000660F460F50E0CA0133E0959587953A95A1
:10126000E1F7BC016E9DC0016F9D900D7E9D900DBC
:101270001124332727FD3095820F931FE88DF98DB8
:10128000E80FF91F4770507081E090E002C0880FAE
:10129000991F4A95E2F72081CD2811F0282B02C032
:1012A000809528232083DF91CF911F91FF90EF90AD
:1012B000DF90CF9008950F931F93CF93DF93EC01AE
:1012C000162F042F8F8960E00E94580E912F9150A5
:1012D0008A8D890F88501EBD0DB407FEFDCF2EB537
:1012E000193010F0E02F05C0E88DF98DE80FF11DE1
:1012F000E081EEBD0DB407FEFDCF2EB5981750F37B
:101300008F8961E00E94580EDF91CF911F910F915C
:1013100008951F93CF93DF93EC0118E0CE01612F66
:1013200040E00E945B091150C9F7DF91CF911F91F6
:101330000895462F6AE00E945B09089540E0662305
:1013400009F441E06CE00E945B090895FC01808D86
:10135000918D672B19F460E070E002C06FEF70E0D0
:10136000428D50E00E9425160895FF920F931F931F
:10137000CF93DF93EC01F62E142F022F642F70E031
:10138000F3E0660F771FFA95E1F7422F50E0E3E0B4
:10139000440F551FEA95E1F70E94B40589E391E0F7
:1013A00099838883FF8A019F002D11241B8F802F32
:1013B000880F880F880F8A8F90E00E94D00B888F4B
:1013C000998F802F90E00E94D00B8E8F9F8F802F5F
:1013D00090E00E94D00B8C8F9D8F20E00DC0822F5B
:1013E00090E0EC8DFD8DE80FF91F2083EE8DFF8DD1
:1013F000E80FF91F10822F5F201788F30E949D05C8
:101400008F8961E00E94EC0DCE0160E070E00E94E7
:10141000A609CE016FE040E00E945B09CE016BE0BF
:1014200047E00E945B09CE0169E040E00E945B0951
:10143000CE0160E00E949E09CE0167E00E949909FA
:10144000DF91CF911F910F91FF900895FC0166836A
:101450004783208781E085870895CB01BA0120E08A
:1014600030E040E151E40E946A1520E030E040EABB
:1014700050E40E94431420E030E040E052E40E9437
:10148000DF1308950F931F938C01FC01868160E0A8
:101490000E94EC0DF801868161E00E94580EF8016F
:1014A00011861286138614861F910F910895CF928C
:1014B000DF92EF92FF920F931F93CF93DF93EC0194
:1014C0000E944D0D9B01AC0189859A85AB85BC8539
:1014D000281739074A075B0720F419861A861B86E6
:1014E0001C868D85882371F489859A85AB85BC859A
:1014F000281B390B4A0B5B0B205D374040405040A6
:1015000008F481C01D860E944D0D69877A878B87FC
:101510009C871C821B821A82198218828E8161E04C
:101520000E94580E6AEF70E080E090E00E94810D0A
:101530008E8161E00E94EC0D8E8160E00E94580E69
:1015400064E170E080E090E00E94810DF8948E816B
:1015500061E00E94580E88E290E00E94A70D8E8103
:1015600060E00E94EC0D81E0EE2400E010E00AC093
:10157000F39481E090E00E94A70D8FEFF81629F414
:101580000AC0822FFF24C82EDD248E810E948B0E7C
:101590008C159D0569F38E810E948B0E282F8FEF8D
:1015A000F816C9F0043090F000FD10C08E2D86951D
:1015B00086958695FE01E80FF11D9081990F908325
:1015C00088858F1510F491609083E3940F5F1F4F0F
:1015D00005351105B1F6789487E28E1510F030E0EC
:1015E00013C030E04C8150E02981888190E0820F67
:1015F000911D2A81820F911D2B81820F911D907068
:101600004817590709F431E0832FDF91CF911F91DB
:101610000F91FF90EF90DF90CF900895EF92FF929F
:101620000F931F93CF93DF93EC010E94570A8823F7
:10163000A9F18F818B3031F08B3080F18551823070
:1016400068F507C0688170E080E090E00E94DC14DB
:1016500022C0688170E080E090E00E94DC1420E00D
:1016600030E040E853E40E946A157B018C016981F7
:1016700070E0882777FD8095982F0E94DE149B01EB
:10168000AC01C801B7010E94DF1320E030E040E266
:1016900051E40E944314E62F692F04C0E0E070E09B
:1016A00080EC6FE72E2F372F482F562FB901CA0134
:1016B000DF91CF911F910F91FF90EF900895CF92FE
:1016C000DF92EF92FF920F931F93CF93DF93EC0182
:1016D000C62E0E94570A882309F44DC08F818B3093
:1016E00041F08B3008F447C08551823008F043C088
:1016F00009C06A8170E080E090E00E94DC147B0108
:101700008C012FC0DA806D2D70E06F7770708827A4
:1017100077FD8095982F0E94DE1420E030E040E8AD
:1017200053E40E946A157B018C016B8170E088276D
:1017300077FD8095982F0E94DE149B01AC01C801B3
:10174000B7010E94DF1320E030E040E251E40E9444
:1017500043147B018C01D7FE04C017FB109517F9C9
:101760001095CC2091F0CE01B801A7010E942D0A5E
:101770007B018C010AC00F2EF0E0EF2EF0E0FF2E6F
:10178000F0EC0F2FFFE71F2FF02DB701C801DF91FD
:10179000CF911F910F91FF90EF90DF90CF90089520
:1017A0000F931F93CF93DF93BC018230910510F408
:1017B00062E070E0E0914B02F0914C0240E050E0BA
:1017C000A0E0B0E024C08081918186179707D0F017
:1017D0008617970771F482819381109729F01396E9
:1017E0009C938E9312972CC090934C0280934B0243
:1017F00027C04115510519F08417950718F48D017C
:10180000AC01EF01DF01828193819C01F9013097E6
:10181000D1F641155105F9F0CA01861B970B8430AA
:10182000910580F48A819B810115110521F0F80151
:101830009383828304C090934C0280934B02FE01F9
:10184000329645C0FE01E80FF91F6193719302972C
:10185000998388833CC08091490290914A02892BE8
:1018600041F48091190190911A0190934A0280935A
:10187000490240911B0150911C014115510541F451
:101880004DB75EB78091170190911801481B590B15
:101890002091490230914A0224173507B0F4CA0159
:1018A000821B930B8617970780F0AB014E5F5F4F4B
:1018B0008417950750F0420F531F50934A024093EC
:1018C0004902F9016193719302C0E0E0F0E0CF01B9
:1018D000DF91CF911F910F910895CF93DF939C01DA
:1018E000009709F48FC0EC0122971B821A82609145
:1018F0004B0270914C026115710581F488819981C8
:10190000820F931F2091490230914A02281739070C
:1019100039F5D0934A02C093490274C0DB0140E01C
:1019200050E0AC17BD0708F1BB83AA83FE012191EB
:101930003191E20FF31FAE17BF0779F48D919C919F
:101940001197280F391F2E5F3F4F39832883129636
:101950008D919C9113979B838A834115510571F456
:10196000D0934C02C0934B024DC012968D919C9126
:101970001397AD01009711F0DC01D3CFDA01139674
:10198000DC93CE931297FA0121913191E20FF31F6C
:10199000CE17DF0769F488819981280F391F2E5FE0
:1019A0003F4FFA01318320838A819B819383828315
:1019B000E0E0F0E0DB0112968D919C911397009787
:1019C00019F0BC01FD01F6CFAB014E5F5F4FDB01AB
:1019D0008D919C91840F951F2091490230914A026C
:1019E0002817390779F4309729F410924C02109295
:1019F0004B0202C0138212824250504050934A025E
:101A000040934902DF91CF9108951F920F920FB634
:101A10000F9211242F933F938F939F93AF93BF9374
:101A20008091990190919A01A0919B01B0919C01A4
:101A300030919D010196A11DB11D232F2D5F2D37E2
:101A400020F02D570196A11DB11D20939D0180937B
:101A5000990190939A01A0939B01B0939C0180916E
:101A6000950190919601A0919701B09198010196EE
:101A7000A11DB11D8093950190939601A0939701AC
:101A8000B0939801BF91AF919F918F913F912F910A
:101A90000F900FBE0F901F9018958FB7F89420915C
:101AA000990130919A0140919B0150919C018FBF07
:101AB000B901CA0108959FB7F8942091950130911A
:101AC0009601409197015091980186B5A89B06C058
:101AD0008F3F21F02F5F3F4F4F4F5F4F9FBF542FDE
:101AE000432F322F2227280F311D411D511D82E027
:101AF000220F331F441F551F8A95D1F7B901CA0120
:101B00000895EF92FF920F931F93CF93DF937B0182
:101B10008C010E945B0DEB010EC00E945B0D6C1BE3
:101B20007D0B685E7340C8F30894E108F108010971
:101B30001109C851DC4FE114F1040105110569F7E1
:101B4000DF91CF911F910F91FF90EF900895019732
:101B500039F0880F991F880F991F02970197F1F7A5
:101B60000895789484B5826084BD84B5816084BD15
:101B700085B5826085BD85B5816085BDEEE6F0E006
:101B8000808181608083E1E8F0E010828081826062
:101B90008083808181608083E0E8F0E080818160E3
:101BA0008083E1EBF0E0808184608083E0EBF0E013
:101BB000808181608083EAE7F0E0808184608083B7
:101BC0008081826080838081816080838081806861
:101BD00080831092C1000895CF93DF93482F50E087
:101BE000CA018B569A4FFC0134914F575A4FFA0154
:101BF0008491882369F190E0880F991FFC01ED59C9
:101C0000FA4FA591B491FC01E359FA4FC591D491D3
:101C1000662351F42FB7F8948C91932F90958923D4
:101C20008C93888189230BC0623061F42FB7F894BC
:101C30008C91932F909589238C938881832B888313
:101C40002FBF06C09FB7F8948C91832B8C939FBFB6
:101C5000DF91CF910895833071F0843028F4813082
:101C6000A1F0823021F514C08630B1F08730D1F078
:101C70008430E9F404C0809180008F7703C08091A4
:101C800080008F7D80938000089584B58F7702C097
:101C900084B58F7D84BD08958091B0008F77809347
:101CA000B00008958091B0008F7D8093B0000895BA
:101CB000FF920F931F93F62E482F50E0CA018755CD
:101CC0009A4FFC012491CA018B569A4FFC01149142
:101CD0004F575A4FFA0104910023C9F0222319F0FB
:101CE000822F0E942B0EE02FF0E0EE0FFF1FE35932
:101CF000FA4FA591B4919FB7F894FF2021F48C91ED
:101D00001095812302C08C91812B8C939FBF1F91D2
:101D10000F91FF9008950F931F93482F50E0CA0131
:101D200087559A4FFC012491CA018B569A4FFC01AA
:101D300004914F575A4FFA011491112319F420E0DE
:101D400030E015C0222319F0822F0E942B0E812F24
:101D500090E0880F991F89589A4FFC01A591B49182
:101D60008C9120E030E0802311F021E030E0C901C7
:101D70001F910F91089508951F920F920FB60F9221
:101D800011242F933F934F938F939F93EF93FF9340
:101D90008091C00082FD1DC04091C6002091DE01EF
:101DA0003091DF012F5F3F4F2F7330708091E00142
:101DB0009091E1012817390771F0E091DE01F0916F
:101DC000DF01E256FE4F40833093DF012093DE01B6
:101DD00002C08091C600FF91EF919F918F914F912A
:101DE0003F912F910F900FBE0F901F901895E0918B
:101DF0003202F0913302E05CFF4F8191919120819A
:101E00003181821B930B8F739070892B11F00E948C
:101E1000BB0E08951F920F920FB60F9211242F93AD
:101E20003F938F939F93EF93FF93209122023091E2
:101E3000230280912402909125022817390731F45A
:101E40008091C1008F7D8093C10014C0E091240275
:101E5000F0912502EE51FE4F208180912402909155
:101E6000250201968F73907090932502809324022F
:101E70002093C600FF91EF919F918F913F912F91F9
:101E80000F900FBE0F901F901895AF92BF92DF92E8
:101E9000EF92FF920F931F93CF93DF93EC017A01A0
:101EA0008B01DD24403081EE580780E0680780E038
:101EB000780711F0DD24D39491E0A92EB12CEC89A0
:101EC000FD89DD2069F0C50108A002C0880F991FB7
:101ED0000A94E2F7808360E079E08DE390E005C04A
:101EE000108260E874E88EE190E0A80197010E94FA
:101EF000F415215030404040504056954795379555
:101F0000279580E12030380720F0DD2011F0DD2416
:101F1000D6CFE889F9893083EA89FB89208319A221
:101F2000EE89FF89408121E030E0C9010C8C02C0BC
:101F3000880F991F0A94E2F7482B4083EE89FF89A6
:101F40004081C9010D8C02C0880F991F0A94E2F7E5
:101F5000482B4083EE89FF894081C9010E8C02C065
:101F6000880F991F0A94E2F7482B4083EE89FF8976
:101F700080810F8C02C0220F331F0A94E2F7209554
:101F800028232083DF91CF911F910F91FF90EF9035
:101F9000DF90BF90AF900895DC011C96ED91FC910D
:101FA0001D97E05CFF4F2191319180819181281B29
:101FB000390B2F733070C9010895DC011C96ED9127
:101FC000FC911D97E05CFF4F20813181E054F0408F
:101FD000DF01AE5BBF4F8D919C9111972817390798
:101FE00019F42FEF3FEF07C08D919C91E80FF91F77
:101FF0008081282F30E0C9010895DC011C96ED9105
:10200000FC911D97E05CFF4F20813181E054F0404E
:10201000DF01AE5BBF4F8D919C9111972817390757
:1020200019F42FEF3FEF10C08D919C911197E80F9D
:10203000F91F20818D919C91119701968F7390705B
:1020400011969C938E9330E0C9010895DC0191961E
:102050008C919197882339F05496ED91FC91559786
:10206000808186FFF9CF91961C920895CF93DF93DC
:10207000EC01EE85FF85E05CFF4F20813181E0546B
:10208000F0402F5F3F4F2F733070DF01AE5BBF4FCB
:102090008D919C91119728173907D1F3E05CFF4F80
:1020A00080819181E054F040E80FF91F6083EE8554
:1020B000FF85E05CFF4F31832083EE89FF8920811B
:1020C00081E090E00F8C02C0880F991F0A94E2F71C
:1020D000282B208381E089A3EC89FD89808180649D
:1020E000808381E090E0DF91CF91089510922902E2
:1020F0001092280288EE93E0A0E0B0E080932A02DC
:1021000090932B02A0932C02B0932D0281E591E0D5
:1021100090932702809326028EE991E090933302F8
:102120008093320282EE91E09093350280933402E4
:1021300085EC90E0909337028093360284EC90E037
:10214000909339028093380280EC90E090933B02A8
:1021500080933A0281EC90E090933D0280933C02A0
:1021600082EC90E090933F0280933E0286EC90E0F8
:10217000909341028093400284E08093420283E086
:102180008093430287E08093440285E08093450278
:1021900081E0809346020895CF93DF930E94B10DB2
:1021A0000E946205C7EFDEE00E9485042097E1F3FC
:1021B0000E94F70EF9CF0895CF92DF92EF92FF922F
:1021C0000F931F93CF93DF937C016B018A01C0E0D3
:1021D000D0E00FC0D6016D916D01D701ED91FC915A
:1021E0000190F081E02DC7010995C80FD91F01505A
:1021F00010400115110571F7CE01DF91CF911F91AC
:102200000F91FF90EF90DF90CF900895EF92FF92A3
:102210000F931F938C01DC01ED91FC910190F081F3
:10222000E02D6DE009957C01D801ED91FC910190C4
:10223000F081E02DC8016AE009959C012E0D3F1D3B
:10224000C9011F910F91FF90EF900895AF92BF9237
:10225000CF92DF92EF92FF920F931F93CF93DF9372
:102260005C016B01EE24FF24C0E0D0E010C0D5017A
:10227000ED91FC9100811181C601BE010E94CB113C
:10228000682FC501F8010995E80EF91E2196F6019F
:1022900084819581C817D90750F3C701DF91CF9189
:1022A0001F910F91FF90EF90DF90CF90BF90AF9074
:1022B0000895EF92FF920F931F937C010E942611C5
:1022C0008C01C7010E9406119C01200F311FC9011A
:1022D0001F910F91FF90EF900895CF93DF93EC0142
:1022E0000E944D0D688779878A879B87E881F981ED
:1022F0000680F781E02DCE0109959C0197FF15C05E
:102300000E944D0D288539854A855B85621B730BBC
:10231000840B950B2C813D814E815F816217730781
:102320008407950718F32FEF3FEFC901DF91CF9195
:1023300008950F931F93CF93DF93182F092FEB016D
:1023400062E171E00E94C61204C0812F902F0E94AA
:102350007012CE010E946D11BC0197FFF6CF812F44
:10236000902FDF91CF911F910F910895FC019B0158
:10237000848195816817790728F4608171816115DE
:10238000710529F41092480268E472E002C0620FFD
:10239000731FCB010895FC0184819581681779072B
:1023A00048F40190F081E02D309721F0E60FF71FFF
:1023B0008081089580E008950F931F93CF93DF935A
:1023C000EC018B016F5F7F4F888199810E94FD1224
:1023D000009711F480E005C0998388831B830A83EA
:1023E00081E0DF91CF911F910F910895CF93DF93FB
:1023F000EC0188819981892B29F08A819B8186173C
:10240000970760F4CE010E94DC11882341F08C8193
:102410009D81892B19F4E881F981108281E0DF9197
:10242000CF910895EF92FF920F931F93CF93DF9375
:10243000EC017B016C817D81E114F104C1F0411557
:10244000510599F08A01060F171FB8010E94F61175
:10245000882369F0888199812C813D81820F931FA7
:10246000B7010E942C161D830C8381E001C080E01F
:10247000DF91CF911F910F91FF90EF900895EF9210
:10248000FF920F931F93DF93CF93CDB7DEB72797BC
:102490000FB6F894DEBF0FBECDBF7C01CB018E011D
:1024A0000F5F1F4FB8014AE050E00E943316F80159
:1024B00001900020E9F73197E01BF10BC701B8014B
:1024C000AF010E94121227960FB6F894DEBF0FBE1E
:1024D000CDBFCF91DF911F910F91FF90EF900895A5
:1024E000DF93CF9300D0CDB7DEB769831A82BE01E8
:1024F0006F5F7F4F41E050E00E9412120F900F90EB
:10250000CF91DF9108956115710511F480E0089570
:10251000DB010D900020E9F71197A61BB70BAD0169
:102520000E9412120895CF93DF93EC018881998164
:10253000009711F00E946D0C198218821D821C8276
:102540001B821A82DF91CF910895EF92FF920F9331
:102550001F93CF93DF93EC017B018A01BA010E94A4
:10256000F611882321F4CE010E94931207C01D8327
:102570000C8388819981B7010E942C16CE01DF91CE
:10258000CF911F910F91FF90EF900895CF93DF931C
:10259000EC01198218821B821A821D821C821E8203
:1025A0006115710551F0DB010D900020E9F71197DD
:1025B000A61BB70BAD010E94A512DF91CF91089524
:1025C000CF93DF93EC01FB018617970761F06081E1
:1025D00071816115710529F0448155810E94A51210
:1025E00002C00E949312CE01DF91CF910895FC01A9
:1025F000808191810E946D0C08956F927F928F92DD
:102600009F92AF92BF92CF92DF92EF92FF920F9381
:102610001F93CF93DF938C01009729F4CB010E9485
:10262000D00B8C01BBC08EEFE82E8FEFF82EE00EA2
:10263000F11E4801860E971E8E149F0408F4ACC04C
:10264000D7014D915C91119746175707B8F0453067
:10265000510508F4A3C0CA0104978617970708F428
:102660009DC042505040461B570BF401419351937B
:102670006D937C93CF010E946D0C90C05B01A41AF6
:10268000B50A3801640E751EA0914B02B0914C0240
:10269000E0E0F0E0CC24DD2447C0A615B705A9F59D
:1026A000CD91DC911197CE0102968A159B0568F1B8
:1026B000CE018A199B09029612962C9112971396B5
:1026C0003C91059758F0F40122833383CA19DB0942
:1026D000D183C083D7016D937C9309C04E5F5F4F58
:1026E0004C0F5D1FF70151834083C901FC01C114E8
:1026F000D10431F0D6011396FC93EE9312974EC09D
:10270000F0934C02E0934B0249C08D919C9111973C
:10271000E817F90708F4FC016D0112968C911297E5
:1027200013969C919C01D901109709F0B6CF809126
:10273000490290914A0286159705E9F4E617F707D2
:10274000D0F420911B0130911C012115310541F479
:102750002DB73EB78091170190911801281B390BB6
:1027600082169306C8F490924A0280924902F701B9
:102770007183608313C0CB010E94D00BEC010097E2
:1027800059F0D7014D915C91B8010E941C16C80107
:102790000E946D0C8E0102C000E010E0C801DF91C4
:1027A000CF911F910F91FF90EF90DF90CF90BF904E
:1027B000AF909F908F907F906F9008955058BB2757
:1027C000AA270ED04DC13ED130F043D120F031F4D4
:1027D0009F3F11F41EF433C10EF4E095E7FB29C1CD
:1027E000E92F4FD180F3BA17620773078407950763
:1027F00018F071F49EF567C10EF4E0950B2EBA2F18
:10280000A02D0B01B90190010C01CA01A0011124F6
:10281000FF27591B99F0593F50F4503E68F11A16A2
:10282000F040A22F232F342F4427585FF3CF469533
:1028300037952795A795F0405395C9F77EF41F1655
:10284000BA0B620B730B840BBAF09150A1F0FF0F1F
:10285000BB1F661F771F881FC2F70EC0BA0F621F0B
:10286000731F841F48F4879577956795B795F795FB
:102870009E3F08F0B3CF9395880F08F09927EE0F8D
:102880009795879508950CD0EBC0E3D040F0DAD04F
:1028900030F021F45F3F19F0CCC0511115C1CFC009
:1028A000F0D098F39923C9F35523B1F3951B550B39
:1028B000BB27AA2762177307840738F09F5F5F4F13
:1028C000220F331F441FAA1FA9F333D00E2E3AF054
:1028D000E0E830D091505040E695001CCAF729D06E
:1028E000FE2F27D0660F771F881FBB1F26173707BD
:1028F0004807AB07B0E809F0BB0B802DBF01FF27ED
:1029000093585F4F2AF09E3F510568F092C0DCC09B
:102910005F3FECF3983EDCF3869577956795B79526
:10292000F7959F5FC9F7880F911D9695879597F941
:102930000895E1E0660F771F881FBB1F62177307BA
:102940008407BA0720F0621B730B840BBA0BEE1FCF
:1029500088F7E095089504D06894B111B5C0089542
:1029600098D088F09F5790F0B92F9927B751A0F0D1
:10297000D1F0660F771F881F991F1AF0BA95C9F713
:1029800012C0B13081F09FD0B1E008959CC0672F94
:10299000782F8827B85F39F0B93FCCF386957795C3
:1029A0006795B395D9F73EF49095809570956195AC
:1029B0007F4F8F4F9F4F0895E89409C097FB3EF4D7
:1029C00090958095709561957F4F8F4F9F4F99237C
:1029D000A9F0F92F96E9BB279395F69587957795FA
:1029E0006795B795F111F8CFFAF4BB0F11F460FFBA
:1029F0001BC06F5F7F4F8F4F9F4F16C0882311F012
:102A000096E911C0772321F09EE8872F762F05C025
:102A1000662371F096E8862F70E060E02AF09A95C0
:102A2000660F771F881FDAF7880F9695879597F9B5
:102A3000089597F99F6780E870E060E008959FEF40
:102A400080EC089500240A94161617061806090645
:102A5000089500240A941216130614060506089514
:102A6000092E0394000C11F4882352F0BB0F40F49C
:102A7000BF2B11F460FF04C06F5F7F4F8F4F9F4FDC
:102A8000089557FD9058440F551F59F05F3F71F05E
:102A90004795880F97FB991F61F09F3F79F08795C5
:102AA0000895121613061406551FF2CF4695F1DF4E
:102AB00008C0161617061806991FF1CF86957105DE
:102AC000610508940895E894BB2766277727CB0112
:102AD00097F908950BD0C4CFB5DF28F0BADF18F00E
:102AE000952309F0A6CFABCF1124EECFCADFA0F318
:102AF000959FD1F3950F50E0551F629FF001729F93
:102B0000BB27F00DB11D639FAA27F00DB11DAA1FB1
:102B1000649F6627B00DA11D661F829F2227B00DFE
:102B2000A11D621F739FB00DA11D621F839FA00D89
:102B3000611D221F749F3327A00D611D231F849FD9
:102B4000600D211D822F762F6A2F11249F57504030
:102B50008AF0E1F088234AF0EE0FFF1FBB1F661FCB
:102B6000771F881F91505040A9F79E3F510570F084
:102B700060CFAACF5F3FECF3983EDCF38695779564
:102B80006795B795F795E7959F5FC1F7FE2B880F7F
:102B9000911D9695879597F90895AA1BBB1B51E146
:102BA00007C0AA1FBB1FA617B70710F0A61BB70BBD
:102BB000881F991F5A95A9F780959095BC01CD0162
:102BC000089597FB092E07260AD077FD04D0E5DF8C
:102BD00006D000201AF4709561957F4F0895F6F79E
:102BE000909581959F4F0895A1E21A2EAA1BBB1BB9
:102BF000FD010DC0AA1FBB1FEE1FFF1FA217B307C9
:102C0000E407F50720F0A21BB30BE40BF50B661FDE
:102C1000771F881F991F1A9469F7609570958095A2
:102C200090959B01AC01BD01CF010895EE0FFF1FF0
:102C30000590F491E02D0994FB01DC0102C00190A4
:102C40000D9241505040D8F70895DC0101C06D93BA
:102C500041505040E0F70895FB01DC0101900D92D6
:102C60000020E1F70895FB019F01E8944230C4F091
:102C70004532B4F44A3029F497FB1EF490958195BF
:102C80009F4F642F77270E94CD15805D8A330CF00B
:102C9000895D8193CB010097A1F716F45DE2519312
:102CA0001082C9010C945416DC01FC01672F71914C
:102CB0007723E1F7329704C07C916D937083629122
:102CC000AE17BF07C8F3089515E0C2ECD5E004C005
:102CD000FE010E9418162296C43CD107C9F7F89449
:022CE000FFCF24
:102CE2000030003A0020002E0027432000257268A1
:102CF2002000001400010080004D020000000000CE
:102D0200004508DC10DB10D205D206EE067E060D69
:102D1200074207A508000000004508DC10AF08D2F2
:102D220005D206EE067E060D07A609A508000000DC
:0E2D3200003610DC10CC0FFD0FDD0F26100058
:00000001FF
