S013000041533620747574206164632E7372656382
S11300000C9434000C943E000C943E000C943E007E
S11300100C943E000C943E000C943E000C943E0064
S11300200C943E000C943E000C943E000C943E0054
S11300300C943E000C943E000C943E000C943E0044
S11300400C943E000C943E000C943E000C943E0034
S11300500C943E000C943E000C943E000C943E0024
S11300600C943E000C943E0011241FBECFEFD8E048
S1130070DEBFCDBF0E9460000C946B000C940000A6
S1130080806880937A006295660F660F607C609347
S11300907C000895ECE7F0E0908190629083908179
S11300A0907F90839081892B8083EAE7F0E08081C0
S11300B080648083808186FDFDCF809179000895DE
S11300C061E086E00E9440008FEF8AB980E00E94E0
S10D00D04A008BB9FBCFF894FFCF70
S9030000FC
