:100000000C9461000C947E000C947E000C947E0095
:100010000C947E000C947E000C947E000C947E0068
:100020000C947E000C947E000C947E000C947E0058
:100030000C947E000C947E000C947E000C947E0048
:100040000C94B0010C947E000C947E000C947E0005
:100050000C947E000C947E000C947E000C947E0028
:100060000C947E000C947E00000000002400270009
:100070002A0000000000250028002B0000000000DE
:1000800023002600290004040404040404040202DA
:100090000202020203030303030301020408102007
:1000A0004080010204081020010204081020000012
:1000B0000007000201000003040600000000000029
:1000C000000011241FBECFEFD8E0DEBFCDBF11E08E
:1000D000A0E0B1E0E6E6F7E002C005900D92A430A2
:1000E000B107D9F711E0A4E0B1E001C01D92A5313C
:1000F000B107E1F70E94A2030C94B1030C94000035
:10010000FF920F931F93182F062FF42E8BE060E0C1
:100110000E94FB028CE060E00E94FB028DE060E048
:100120000E94FB02112321F08BE061E00E94FB02A0
:10013000002321F08CE061E00E94FB02FF2021F00F
:100140008DE061E00E94FB021F910F91FF900895E6
:1001500089E061E00E94FB02809104019091050119
:10016000892B79F081E060E040E00E94800060919E
:10017000040170910501882777FD8095982F0E94D2
:10018000060280E060E041E00E94800064E670E0EA
:1001900080E090E00E94060289E060E00E94FB029D
:1001A00080E060E040E00E94800060ED77E080E069
:1001B00090E00E940602089580E060E040E00E9426
:1001C000800007C08EE00E949A0290930B018093FA
:1001D0000A0120910A0130910B0180910601909152
:1001E0000701821793073CF480910801909109015F
:1001F000281739073CF30E94A8000895EF92FF9258
:100200000F931F938EE00E949A0290930B018093AC
:100210000A0190930701809306019093090180934E
:1002200008010E94F8017B018C0188E893E1A0E0BD
:10023000B0E0E80EF91E0A1F1B1F80E061E040E0FD
:100240000E9480002BC08EE00E949A029C01909335
:100250000B0180930A0180910601909107012817F4
:1002600039075CF48091000190910101D901A81B2C
:10027000B90BB0930701A0930601809108019091FA
:1002800009018217930754F48091000190910101B4
:10029000820F931F90930901809308010E94F80137
:1002A0006E157F058007910770F280E060E040E006
:1002B0000E9480001F910F91FF90EF9008958EE0B3
:1002C0000E949A0290930B0180930A0120910601EB
:1002D00030910701821793072CF480E061E040E041
:1002E0000E94800020910A0130910B018091080149
:1002F000909109018217930714F481E001C080E016
:1003000060E040E00E94800082E00E944F03892B61
:1003100011F40E94FE0083E00E944F03892B11F428
:100320000E94DC0008958BE061E00E94BC028DE039
:1003300061E00E94BC028CE061E00E94BC0289E0A6
:1003400061E00E94BC0282E062E00E94BC0283E0A5
:1003500062E00E94BC0289E060E00E94FB02089516
:100360001F920F920FB60F9211242F933F938F93EA
:100370009F93AF93BF938091100190911101A09131
:100380001201B0911301309114010196A11DB11D0C
:10039000232F2D5F2D3720F02D570196A11DB11D64
:1003A000209314018093100190931101A0931201E6
:1003B000B093130180910C0190910D01A0910E0159
:1003C000B0910F010196A11DB11D80930C01909376
:1003D0000D01A0930E01B0930F01BF91AF919F91BA
:1003E0008F913F912F910F900FBE0F901F901895F6
:1003F0008FB7F894209110013091110140911201B2
:10040000509113018FBFB901CA0108959B01AC013E
:100410007FB7F89480910C0190910D01A0910E018D
:10042000B0910F0166B5A89B05C06F3F19F001960A
:10043000A11DB11D7FBFBA2FA92F982F8827860F26
:10044000911DA11DB11D62E0880F991FAA1FBB1F3E
:100450006A95D1F7BC012DC0FFB7F89480910C01CB
:1004600090910D01A0910E01B0910F01E6B5A89BEE
:1004700005C0EF3F19F00196A11DB11DFFBFBA2FB6
:10048000A92F982F88278E0F911DA11DB11DE2E085
:10049000880F991FAA1FBB1FEA95D1F7861B970BE0
:1004A000885E9340C8F2215030404040504068512F
:1004B0007C4F211531054105510571F60895789459
:1004C00084B5826084BD84B5816084BD85B5826059
:1004D00085BD85B5816085BDEEE6F0E080818160F7
:1004E0008083E1E8F0E010828081826080838081F7
:1004F00081608083E0E8F0E0808181608083E1EBCF
:10050000F0E0808184608083E0EBF0E080818160B6
:100510008083EAE7F0E0808184608083808182606C
:100520008083808181608083808180688083109255
:10053000C1000895982F8E3008F09E5097708091DA
:1005400002018295880F880F807C892B80937C0024
:1005500080917A00806480937A0080917A0086FD91
:10056000FCCF2091780040917900942F80E030E01A
:10057000282B392BC9010895CF93DF93482F50E0E2
:10058000CA0186569F4FFC0134914A575F4FFA01CA
:100590008491882369F190E0880F991FFC01E85944
:1005A000FF4FA591B491FC01EE58FF4FC591D49136
:1005B000662351F42FB7F8948C91932F909589234B
:1005C0008C93888189230BC0623061F42FB7F89433
:1005D0008C91932F909589238C938881832B88838A
:1005E0002FBF06C09FB7F8948C91832B8C939FBF2D
:1005F000DF91CF910895482F50E0CA0182559F4F57
:10060000FC012491CA0186569F4FFC0194914A57E0
:100610005F4FFA013491332309F440C0222351F192
:10062000233071F0243028F42130A1F0223011F56C
:1006300014C02630B1F02730C1F02430D9F404C002
:10064000809180008F7703C0809180008F7D8093A0
:10065000800010C084B58F7702C084B58F7D84BDC3
:1006600009C08091B0008F7703C08091B0008F7D6A
:100670008093B000E32FF0E0EE0FFF1FEE58FF4F26
:10068000A591B4912FB7F894662321F48C9190959D
:10069000892302C08C91892B8C932FBF0895682FDA
:1006A00070E0CB0182559F4FFC012491CB0186560F
:1006B0009F4FFC0144916A577F4FFB01949199230E
:1006C00019F420E030E03CC0222351F1233071F0D6
:1006D000243028F42130A1F0223011F514C0263046
:1006E000B1F02730C1F02430D9F404C080918000EB
:1006F0008F7703C0809180008F7D8093800010C031
:1007000084B58F7702C084B58F7D84BD09C0809188
:10071000B0008F7703C08091B0008F7D8093B000D0
:10072000892F90E0880F991F84589F4FFC01A59155
:10073000B4918C9120E030E0842311F021E030E08E
:10074000C9010895CF93DF930E945F020E94930135
:10075000C0E0D0E00E945F012097E1F30E9400001A
:06076000F9CFF894FFCF71
:040766000F0001007F
:00000001FF
