:100000000C9464000C948C000C948C000C948C0068
:100010000C948C000C948C000C948C000C948C0030
:100020000C948C000C948C000C948C000C948C0020
:100030000C948C000C948C000C948C000C948C0010
:100040000C9474080C948C000C948C000C948C0010
:100050000C948C000C948C000C948C000C948C00F0
:100060000C948C000C948C003206350638063B0646
:100070004006430646060000000800020100000397
:100080000407000000000000000001020408102026
:10009000408001020408102001020408102004041A
:1000A0000404040404040202020202020303030320
:1000B000030300000000250028002B0000000000C2
:1000C000240027002A00B00611241FBECFEFD8E07D
:1000D000DEBFCDBF12E0A0E0B1E0EEE9FBE102C07F
:1000E00005900D92A633B107D9F722E0A6E3B2E05E
:1000F00001C01D92A939B207E1F710E0C8ECD0E0C9
:1001000004C02297FE010E94F10AC63CD107C9F73C
:100110000E94110A0C94CD0D0C940000CF92DF9236
:10012000EF92FF924B9902C038E001C030E04A994B
:1001300002C024E001C020E0499902C092E001C061
:1001400090E089B180958170832B822B892B8093DD
:100150003B0290913A02891791F020913B022230A4
:1001600079F128F42130E9F520934C023EC0243087
:1001700059F12830B1F581E080934D0228C080917B
:100180003C0290913D02019690933D0280933C0287
:100190000E94BE0820913E0230913F02C090400272
:1001A000D0904102E0904202F0904302C20ED31E72
:1001B000E11CF11CC616D706E806F90670F227C046
:1001C00081E080934B0211C081E080934E028091C8
:1001D0003C0290913D028139914068F082E390E0C9
:1001E00006C010923D0210923C0284EF91E0909381
:1001F0003F0280933E0220933A020E94BE08609321
:100200004002709341028093420290934302FF9018
:10021000EF90DF90CF90089540E060E088E792E0B3
:100220000E94730780914502882319F063E271E010
:1002300002C065E271E088E792E00E945E0A40E059
:100240006FE088E792E00E947307909145028091E9
:100250001C01981303C065E271E002C067E271E01F
:1002600088E792E00E945E0A40E062E088E792E060
:100270000E94730767E672E088E792E00E945E0AD8
:1002800041E060E088E792E00E94730766E572E073
:1002900088E792E00C945E0ACF9380914E02882307
:1002A00039F0809146028F5F8093460210924E0291
:1002B00080914D02882339F08091460281508093CD
:1002C000460210924D0280914C02C0914602882352
:1002D00091F0809144028F5F8093440297E0C99F20
:1002E000F0011124E80FF11DE050FF4F8081809351
:1002F000450210924C0280914B02811110924B02E8
:10030000C43008F0C3E0C093460269E271E087E6BA
:1003100092E00E94F50AC11103C066E371E00EC0CD
:10032000C13019F467E471E009C0C23019F468E51E
:1003300071E004C0C33039F469E671E086E592E00B
:10034000CF910C94F50ACF9108959091200181E00E
:10035000981741F090914E02992321F0809320014B
:1003600010924E02809120018823A9F080914E02C4
:10037000882389F0809121018A3031F0843631F070
:10038000813039F48AE003C084E601C081E08093C3
:10039000210110924E0280914D02882321F010928B
:1003A000200110924D0280914C028823A1F0E0912F
:1003B0004602809144028F5F8093440297E0E99F58
:1003C000F0011124E80FF11DE050FF4F8081809370
:1003D000450210924C0280914B028823A1F0E091DB
:1003E00046028091440281508093440297E0E99F45
:1003F000F0011124E80FF11DE050FF4F8081809340
:10040000450210924B026AE771E087E692E00E9493
:10041000F50A80912001882301F18EE00E945B099A
:100420008093540290935502209121011F922F93A3
:100430009F938F9387E891E09F938F9386E592E057
:100440009F938F930E94FC0A8DB79EB708960FB6B4
:10045000F8949EBF0FBE8DBF089586B181E0809352
:100460004F021F928F9385E991E09F938F9386E5CA
:1004700092E09F938F930E94FC0A0F900F900F9031
:100480000F900F900F900895CF93DF9320914E021D
:10049000EC01CC0FDD1F40911F01222389F0FE01EA
:1004A000E95BFD4F20813181240F311D203157E25E
:1004B000350710F02FE037E23183208310924E028F
:1004C00020914D02222389F0FE01E95BFD4F20813E
:1004D0003181241B3109203157E2350710F02FE01C
:1004E00037E23183208310924D0220914C02222367
:1004F000A1F0E0914602209144022F5F2093440234
:1005000037E0E39FF0011124E20FF11DE050FF4FAF
:1005100020812093450210924C0220914B0222230D
:10052000A1F0E09146022091440221502093440220
:1005300057E0E59FF0011124E20FF11DE050FF4F5D
:1005400020812093450210924B021F924F939F935C
:100550008F9387EA91E09F938F9387E692E09F9332
:100560008F930E94FC0AC95BDD4F89818F9388813C
:100570008F9384EB91E09F938F9386E592E09F9316
:100580008F930E94FC0A8DB79EB70E960FB6F89413
:100590009EBF0FBE8DBFDF91CF910895CF93809105
:1005A0004E02882329F080911E018F5F80931E01E7
:1005B00080911E01882321F08B3018F08AE001C061
:1005C00081E080931E0110924E0290914D0299237A
:1005D00019F0815080931E01C0911E01CC2321F09F
:1005E000CB3018F0CAE001C0C1E0C0931E011092E8
:1005F0004D0280914C02882391F0E0914602809157
:1006000044028F5F8093440297E0E99FF001112438
:10061000E80FF11DE050FF4F80818093450210925A
:100620004C0280914B02882391F0E0914602809128
:10063000440281508093440297E0E99FF001112425
:10064000E80FF11DE050FF4F80818093450210922A
:100650004B0264EC71E087E692E00E94F50A1F927B
:10066000CF9380EB91E09F938F9386E592E09F93E9
:100670008F930E94FC0A0F900F900F900F900F9095
:100680000F90CF910895CF9380914E02882329F047
:1006900080911D018F5F80931D0180911D01882332
:1006A00021F0853618F084E601C081E080931D01B9
:1006B00010924E0290914D02992319F0815080932F
:1006C0001D01C0911D01CC2321F0C53618F0C4E6F0
:1006D00001C0C1E0C0931D0110924D0280914C02F7
:1006E000882391F0E0914602809144028F5F8093CD
:1006F000440297E0E99FF0011124E80FF11DE0505A
:10070000FF4F80818093450210924C0280914B02F2
:10071000882391F0E09146028091440281508093B9
:10072000440297E0E99FF0011124E80FF11DE05029
:10073000FF4F80818093450210924B026FEC71E075
:1007400087E692E00E94F50A1F92CF9380EB91E03A
:100750009F938F9386E592E09F938F930E94FC0A6C
:100760000F900F900F900F900F900F90CF910895D2
:100770008F929F92AF92BF92CF92DF92EF92FF92B1
:100780005C0188E792E00E946C0769ED71E088E700
:1007900092E00E945E0A8EE00E945B099C0121505B
:1007A00031093093510220935002019690935302E5
:1007B000809352020E94BE086B017C0128EE33E058
:1007C000A29EC001A39E900DB29E900D1124AA2757
:1007D00097FDA095BA2FC80ED91EEA1EFB1E48EE43
:1007E000842E43E0942EA12CB12C0E94BE086C15DF
:1007F0007D058E059F0508F05CC08EE00E945B09B8
:1008000020915002309151028217930720F4909367
:1008100051028093500220915202309153022817C6
:10082000390720F4909353028093520240E06DE028
:1008300088E792E00E9473070E94BE08A701960114
:10084000261B370B480B590BCA01B901A5019401AE
:100850000E94CD0ABA01A9012AE030E088E792E0BF
:100860000E94B90A41E060E088E792E00E947307C5
:1008700065EE71E088E792E00E945E0A60915202A4
:10088000709153024AE050E088E792E00E94C60A65
:1008900067EE71E088E792E00E945E0A6091500284
:1008A000709151024AE050E088E792E00E94C60A47
:1008B0009CCF2091210130E0809150029091510213
:1008C000821B930B909351028093500280915202AD
:1008D00090915302820F931F909353028093520280
:1008E00088E792E0FF90EF90DF90CF90BF90AF90BD
:1008F0009F908F900C946C0788E792E00E946C07A1
:100900006AEE71E088E792E00C945E0ACF93DF9381
:1009100085E090E00E94B8030E947C0485B190E1DC
:10092000892785B985B190E2892785B98EE00E9433
:100930005B099093550280935402809154029091E8
:10094000550269B151E02091520230915302821751
:10095000930708F050E041E020915002309151029D
:100960002817390708F040E0452311F063FDDECF7A
:10097000609147027091480280E090E00E94ED088B
:1009800085B1D8E08D2785B985B1C4E08C2785B9BC
:100990006AE070E080E090E00E94ED0885B18D276C
:1009A00085B985B18C2785B985B190E2892785B94C
:1009B00085B190E1892785B9DF91CF910895CF93D3
:1009C000DF930E947C0485B190E1892785B985B1C8
:1009D00090E2892785B986B1817096B14B9B03C09F
:1009E00091709817D1F3609147027091480280E0AE
:1009F00090E00E94ED0885B1D8E08D2785B985B1DA
:100A0000C4E08C2785B96AE070E080E090E00E9445
:100A1000ED0885B18D2785B985B18C2785B985B15C
:100A200090E1892785B985B190E2892785B9DF9161
:100A3000CF910895CF9385E090E00E94B8030E9483
:100A40007C048EE00E945B099093550280935402CF
:100A500080915402909155022091500230915102A0
:100A60002817390758F441E020915202309153027F
:100A70008217930708F040E0842F01C080E099B10D
:100A8000882311F093FDDDCF6091470270914802F9
:100A900080E090E00E94ED0885B1C0E28C2785B926
:100AA00064E670E080E090E00E94ED0885B18C275C
:100AB00085B9CF910895CF93DF930E947C0486B1CE
:100AC000817096B14B9B03C091709817D1F36091E0
:100AD00047027091480280E090E00E94ED0885B1E5
:100AE000C0E18C2785B985B1D0E28D2785B964EF47
:100AF00071E080E090E00E94ED0885B18D2785B916
:100B000085B18C2785B9DF91CF910895CF92DF927F
:100B1000EF92FF920F931F93CF93DF930E947C0479
:100B2000C8EED3E010E100E24B9B3BC00E94BE0840
:100B300040914702509148024C9F90014D9F300DCB
:100B40005C9F300D1124C0903602D0903702E090A7
:100B50003802F0903902C20ED31EE11CF11CC616F9
:100B6000D706E806F90600F785B1812785B985B172
:100B7000802785B968EC70E080E090E00E94ED0885
:100B800085B1802785B985B1812785B90E94BE08C6
:100B90006093360270933702809338029093390243
:100BA000C3CFDF91CF911F910F91FF90EF90DF9016
:100BB000CF90089565EF71E087E692E00E94F50A14
:100BC0006AE971E086E592E00E94F50A80914E02A2
:100BD0008823F9F010924E0280914602813081F014
:100BE00028F08230B1F40E94860513C08091200164
:100BF000882319F00E9486040CC00E94DF0409C0FB
:100C000080912001882319F00E941A0502C00E94D9
:100C10005B0580914B028823A1F0E0914602809110
:100C2000440281508093440297E0E99FF00111242F
:100C3000E80FF11DE050FF4F808180934502109234
:100C40004B0280914C02811110924C0208958091C8
:100C5000450290E087309105D8F4FC01EC5CFF4F31
:100C60000C94EF0A0E944C0113C00E94A50110C011
:100C700080E090E002C081E090E00E94440208C061
:100C80000E94CE0205C00E94430302C00E94DA0502
:100C90000E940C010C948E000F931F93CF93DF934F
:100CA00062E072E088E792E00E945E0A41E060E064
:100CB00088E792E00E94730762E172E088E792E0C1
:100CC0000E945E0AD8E0C4E010E200E10E948E00BB
:100CD00080913B028430A1F038F4813071F0823091
:100CE000A9F785B1802711C0883069F08F3071F77E
:100CF000DF91CF911F910F91089585B1812705C094
:100D000085B18D2702C085B18C2785B9DFCF809151
:100D10007A00846080937A0084B18C6384B98BB14B
:100D20008F608BB920E042E060E188E792E00E94AA
:100D30008D0760E272E088E792E00E945E0A6CED47
:100D400075E080E090E00E94ED0888E792E00E9464
:100D50006C074B9B0E944C0661E081E00C94DA0921
:100D6000CF92EF920F9354E0C52E65E0E62E06E099
:100D700027E048E069E088E792E00E9448080F9188
:100D8000EF90CF900895CF93DF93EC0160E08E81D8
:100D90000E94DA0981E090E00E94150961E08E81ED
:100DA0000E94DA0981E090E00E94150960E08E81DE
:100DB0000E94DA0984E690E0DF91CF910C94150946
:100DC000CF92DF92EF92FF920F931F93CF93DF9317
:100DD0007C01C0E0D0E0C62ED12C87010C0F1D1F76
:100DE00061E0F80187810E94A109B6010C2E02C0C2
:100DF000759567950A94E2F76170F80187810E9402
:100E0000DA092196C430D10541F7C701DF91CF91AE
:100E10001F910F91FF90EF90DF90CF900C94C3063D
:100E2000CF92DF92EF92FF920F931F93CF93DF93B6
:100E30007C01C0E0D0E0C62ED12C87010C0F1D1F15
:100E400061E0F80187810E94A109B6010C2E02C061
:100E5000759567950A94E2F76170F80187810E94A1
:100E6000DA092196C830D10541F7C701DF91CF914A
:100E70001F910F91FF90EF90DF90CF900C94C306DD
:100E80001F93CF93DF93EC01162F642F8C810E9468
:100E9000DA098D818F3F19F060E00E94DA098F85B1
:100EA000612F84FF06C0CE01DF91CF911F910C947A
:100EB000100770E084E0759567958A95E1F7CE019B
:100EC0000E94E006612FCE01DF91CF911F910C941B
:100ED000E00640E00C94400761E00E94690780ED65
:100EE00097E00C941509443008F043E0FC01238995
:100EF000421710F04FEF420FFC01E40FF11D24895F
:100F0000260F2068622F0C946907FC016089262F48
:100F10002460208B6C600C946907CF93DF93EC0105
:100F2000423018F08F8588608F874B8B1C8A80E455
:100F30008D8B6E8B70E0605C7F4F6F8B222329F06E
:100F4000413019F48F8584608F8780E593EC0E948F
:100F5000150960E08C810E94DA0960E08E810E94B0
:100F6000DA098D818F3F19F060E00E94DA096F8500
:100F700064FD1DC063E0CE010E94E00684E991E1BA
:100F80000E94150963E0CE010E94E00684E991E128
:100F90000E94150963E0CE010E94E00686E990E018
:100FA0000E94150962E0CE010E94E00616C0606250
:100FB000CE010E94690784E991E10E9415096F85BD
:100FC0006062CE010E94690786E990E00E941509DF
:100FD0006F856062CE010E9469076F856062CE01F5
:100FE0000E94690784E0888BCE010E948507CE01AC
:100FF0000E946C0782E0898B66E0CE01DF91CF9181
:101000000C9469076F927F928F92AF92CF92EF927A
:101010000F931F93CF93DF93CDB7DEB73C01162F0D
:10102000842F5D854E853F859889F30184832583D0
:101030000683E782C086A1868286538744873587E8
:10104000968761E00E94A109F30185818F3F19F025
:1010500061E00E94A10961E0F30186810E94A1097B
:10106000112319F0F301178603C080E1F30187878C
:1010700020E041E060E1C301DF91CF911F910F912A
:10108000EF90CF90AF908F907F906F900C948D07E2
:101090008F92AF92CF92EF920F93DC0113961C9236
:1010A0001E921297E2E3F2E0ED93FC931F921F92DF
:1010B0001F921F928C2CAE2CC02EE22E042F2FEFED
:1010C000462F61E00E9402080F900F900F900F9042
:1010D0000F91EF90CF90AF908F90089541E00E94D4
:1010E000400781E090E008951F920F920FB60F9293
:1010F00011242F933F938F939F93AF93BF9380912E
:10110000910290919202A0919302B0919402309139
:10111000900223E0230F2D3720F40196A11DB11D6D
:1011200005C026E8230F0296A11DB11D2093900251
:101130008093910290939202A0939302B0939402B1
:101140008091950290919602A0919702B091980299
:101150000196A11DB11D8093950290939602A093D4
:101160009702B0939802BF91AF919F918F913F9159
:101170002F910F900FBE0F901F9018952FB7F894D6
:1011800060919102709192028091930290919402E9
:101190002FBF08953FB7F8948091950290919602E1
:1011A000A0919702B091980226B5A89B05C02F3F49
:1011B00019F00196A11DB11D3FBF6627782F892F19
:1011C0009A2F620F711D811D911D42E0660F771FDE
:1011D000881F991F4A95D1F70895CF92DF92EF9219
:1011E000FF92CF93DF936B017C010E94CA08EB0151
:1011F000C114D104E104F10489F00E94CC0A0E94D8
:10120000CA086C1B7D0B683E734090F381E0C81ADE
:10121000D108E108F108C851DC4FEACFDF91CF9146
:10122000FF90EF90DF90CF9008958230910538F0D5
:10123000880F991F880F991F05970197F1F7089557
:10124000789484B5826084BD84B5816084BD85B5A1
:10125000826085BD85B5816085BDEEE6F0E0808168
:1012600081608083E1E8F0E0108280818260808389
:10127000808181608083E0E8F0E08081816080830C
:10128000E1EBF0E0808184608083E0EBF0E080813E
:1012900081608083EAE7F0E08081846080838081E0
:1012A0008260808380818160808380818068808388
:1012B0001092C10008958E3008F08E5087702091F2
:1012C000220190E4299F90011124822B80937C00BD
:1012D00080917A00806480937A0080917A0086FD04
:1012E000FCCF809178002091790090E0922B0895B6
:1012F000833081F028F4813099F08230A1F0089594
:101300008730A9F08830B9F08430D1F48091800022
:101310008F7D03C0809180008F7780938000089537
:1013200084B58F7702C084B58F7D84BD0895809188
:10133000B0008F7703C08091B0008F7D8093B000A4
:101340000895CF93DF9390E0FC01E657FF4F24917F
:10135000FC01E256FF4F8491882349F190E0880F09
:10136000991FFC01E454FF4FA591B4918E549F4FF7
:10137000FC01C591D4919FB7611108C0F8948C917C
:10138000209582238C93888182230AC0623051F495
:10139000F8948C91322F309583238C938881822B03
:1013A000888304C0F8948C91822B8C939FBFDF912B
:1013B000CF9108950F931F93CF93DF931F92CDB7D3
:1013C000DEB7282F30E0F901EA58FF4F8491F90188
:1013D000E657FF4F1491F901E256FF4F04910023A5
:1013E000C9F0882321F069830E9478096981E02F80
:1013F000F0E0EE0FFF1FEE54FF4FA591B4919FB7A1
:10140000F8948C91611103C01095812301C0812B48
:101410008C939FBF0F90DF91CF911F910F910895F3
:1014200008950E9420090E94100A0E948706C0E0C9
:10143000D0E00E9427062097E1F30E940000F9CF38
:10144000CF92DF92EF92FF920F931F93CF93DF9390
:101450006C017A01EB01E60EF71E00E010E0CE15FC
:10146000DF0561F06991D601ED91FC910190F08169
:10147000E02DC6010995080F191FF1CFC801DF91B2
:10148000CF911F910F91FF90EF90DF90CF90089533
:101490006115710581F0DB010D900020E9F7AD01C8
:1014A00041505109461B570BDC01ED91FC91028024
:1014B000F381E02D099480E090E008950C94480AAF
:1014C0008F929F92AF92BF92CF92DF92EF92FF9254
:1014D0000F931F93CF93DF93CDB7DEB7A1970FB6CE
:1014E000F894DEBF0FBECDBF7C01C42EE52FCB012B
:1014F000D22E19A221E02D1510F02AE0D22E8E0155
:101500000F5D1F4F8D2C912CA12CB12C6C2D7E2F9B
:10151000A50194010E94CD0A8C2DD29E8019112420
:10152000015011098A3014F4805D01C0895CF80112
:101530008083211531054105510521F0C22EE32F8D
:10154000CA01E4CFB801C7010E94480AA1960FB6AC
:10155000F894DEBF0FBECDBFDF91CF911F910F91E9
:10156000FF90EF90DF90CF90BF90AF909F908F90C3
:1015700008952115310541F4DC01ED91FC910190B4
:10158000F081E02D642F09940C94600A9A01AB015C
:1015900060E070E00C94B90A0895A1E21A2EAA1B2B
:1015A000BB1BFD010DC0AA1FBB1FEE1FFF1FA21713
:1015B000B307E407F50720F0A21BB30BE40BF50B10
:1015C000661F771F881F991F1A9469F76095709599
:1015D000809590959B01AC01BD01CF010895EE0F60
:1015E000FF1F0590F491E02D0994FB01DC010190AF
:1015F0000D920020E1F70895AEE0B0E0E2E0FBE0FC
:101600000C94A40D0D891E8986E08C831A830983AE
:101610008FEF9FE79E838D83AE01475E5F4F6F899B
:10162000788DCE0101960E941E0BEF81F885E00FA8
:10163000F11F10822E96E4E00C94C00DACE0B0E0F7
:10164000E4E2FBE00C94960D7C016B018A01FC0145
:1016500017821682838181FFBDC1CE0101964C01A4
:10166000F7019381F60193FD859193FF81916F01BD
:10167000882309F4ABC1853239F493FD859193FF3A
:1016800081916F01853229F4B70190E00E94060D27
:10169000E7CF512C312C20E02032A0F48B3269F0BE
:1016A00030F4803259F0833269F420612CC08D32DD
:1016B00039F0803339F4216026C02260246023C0D1
:1016C000286021C027FD27C030ED380F3A3078F46C
:1016D00026FF06C0FAE05F9E300D1124532E13C082
:1016E0008AE0389E300D1124332E20620CC08E32D9
:1016F00021F426FD6BC1206406C08C3611F42068ED
:1017000002C0883641F4F60193FD859193FF8191E3
:101710006F018111C1CF982F9F7D9554933028F48C
:101720000C5F1F4FFFE3F9830DC0833631F0833721
:1017300071F0833509F05BC022C0F8018081898394
:101740000E5F1F4F44244394512C540115C038019F
:10175000F2E06F0E711CF801A080B18026FF03C07B
:10176000652D70E002C06FEF7FEFC5012C870E94EE
:10177000FB0C2C0183012C852F77222E17C03801FA
:10178000F2E06F0E711CF801A080B18026FF03C04B
:10179000652D70E002C06FEF7FEFC5012C870E94BE
:1017A000F00C2C012C852068222E830123FC1BC009
:1017B000832D90E048165906B0F4B70180E290E01E
:1017C0000E94060D3A94F4CFF50127FC859127FE7F
:1017D00081915F01B70190E00E94060D31103A94AB
:1017E000F1E04F1A51084114510471F7E5C08436F5
:1017F00011F0893639F5F80127FF07C06081718142
:10180000828193810C5F1F4F08C06081718188279E
:1018100077FD8095982F0E5F1F4F2F76B22E97FF82
:1018200009C090958095709561957F4F8F4F9F4F20
:101830002068B22E2AE030E0A4010E94380DA82EC4
:10184000A81844C0853729F42F7EB22E2AE030E054
:1018500025C0F22FF97FBF2E8F36C1F018F48835DE
:1018600079F0B4C0803719F0883721F0AFC02F2F3E
:101870002061B22EB4FE0DC08B2D8460B82E09C03D
:1018800024FF0AC09F2F9660B92E06C028E030E0E2
:1018900005C020E130E002C020E132E0F801B7FEEF
:1018A00007C060817181828193810C5F1F4F06C0E8
:1018B0006081718180E090E00E5F1F4FA4010E9463
:1018C000380DA82EA818FB2DFF77BF2EB6FE0BC033
:1018D0002B2D2E7FA51450F4B4FE0AC0B2FC08C014
:1018E0002B2D2E7E05C07A2C2B2D03C07A2C01C007
:1018F000752C24FF0DC0FE01EA0DF11D808180339F
:1019000011F4297E09C022FF06C07394739404C0A9
:10191000822F867809F0739423FD13C020FF06C040
:101920005A2C731418F4530C5718732C731468F44E
:10193000B70180E290E02C870E94060D73942C85FD
:10194000F5CF731410F4371801C0312C24FF12C0E6
:10195000B70180E390E02C870E94060D2C8522FFC2
:1019600017C021FF03C088E590E002C088E790E03F
:10197000B7010CC0822F867859F021FD02C080E2A9
:1019800001C08BE227FD8DE2B70190E00E94060DB9
:10199000A51438F4B70180E390E00E94060D5A9434
:1019A000F7CFAA94F401EA0DF11D8081B70190E010
:1019B0000E94060DA110F5CF332009F451CEB701D6
:1019C00080E290E00E94060D3A94F6CFF7018681FE
:1019D000978102C08FEF9FEF2C96E2E10C94B20D3D
:1019E000FC010590615070400110D8F780959095EA
:1019F0008E0F9F1F0895FC016150704001900110EF
:101A0000D8F7809590958E0F9F1F08950F931F9381
:101A1000CF93DF93182F092FEB018B8181FD03C03A
:101A20008FEF9FEF20C082FF10C04E815F812C811D
:101A30003D81421753077CF4E881F9819F012F5FB4
:101A40003F4F39832883108306C0E885F985812FAD
:101A50000995892B29F72E813F812F5F3F4F3F83C7
:101A60002E83812F902FDF91CF911F910F91089599
:101A7000FA01AA27283051F1203181F1E8946F93BF
:101A80006E7F6E5F7F4F8F4F9F4FAF4FB1E03ED065
:101A9000B4E03CD0670F781F891F9A1FA11D680F03
:101AA000791F8A1F911DA11D6A0F711D811D911D36
:101AB000A11D20D009F468943F912AE0269F1124AB
:101AC0003019305D3193DEF6CF010895462F47700F
:101AD000405D4193B3E00FD0C9F7F6CF462F4F706A
:101AE000405D4A3318F0495D31FD4052419302D0C8
:101AF000A9F7EACFB4E0A69597958795779567956E
:101B0000BA95C9F700976105710508959B01AC016D
:101B10000A2E06945795479537952795BA95C9F794
:101B2000620F731F841F951FA01D08952F923F926F
:101B30004F925F926F927F928F929F92AF92BF92DD
:101B4000CF92DF92EF92FF920F931F93CF93DF9389
:101B5000CDB7DEB7CA1BDB0B0FB6F894DEBF0FBEE6
:101B6000CDBF09942A88398848885F846E847D8433
:101B70008C849B84AA84B984C884DF80EE80FD8035
:101B80000C811B81AA81B981CE0FD11D0FB6F894AB
:0E1B9000DEBF0FBECDBFED010895F894FFCF6C
:101B9E000001020600000000010206000000000223
:101BAE00060000000000010203040506060A0101FA
:101BBE00010A013C0023003E004D4F4445202020E9
:101BCE00202020202000466C61736874726967675C
:101BDE006572202020200043616D65726174726908
:101BEE00676765722020200054696D656C617073A3
:101BFE0065202020202020200045787420436F6E21
:101C0E0074726F6C20202020200053454E534F528B
:101C1E0020534554555000413A2534692020205414
:101C2E003A25336900443A256320202020202020C5
:101C3E002020202020200044656C617925692078C1
:101C4E0025346900253469202020202020202020E2
:101C5E002020200044726F707320312D31300044EB
:101C6E00726F702073697A650043616C696272618C
:101C7E0074696E67004800204C00202052756E6E0D
:101C8E00696E67210052554E3F20202020202020D3
:101C9E00200053797374656D2074657374696E6773
:101CAE003A00316620327320332D3120342D32002C
:101CBE00466F746F426F7820762E302E36000000FD
:061CCE0000006E08200A70
:00000001FF
