:100000000C94E1020C9409030C9409030C94090369
:100010000C9409030C9409030C9409030C94090330
:100020000C9409030C9409030C9409030C94090320
:100030000C9409030C9409030C9409030C94090310
:100040000C94D3090C9409030C9409030C94090330
:100050000C9409030C9409030C9409030C940903F0
:100060000C9409030C94090300000000003E5B4F50
:100070005B3E3E6B4F6B3E1C3E7C3E1C183C7E3C08
:10008000181C577D571C1C5E7F5E1C00183C180016
:10009000FFE7C3E7FF0018241800FFE7DBE7FF30A6
:1000A000483A060E2629792926407F050507407F14
:1000B00005253F5A3CE73C5A7F3E1C1C08081C1C87
:1000C0003E7F14227F22145F5F005F5F06097F017D
:1000D0007F006689956A606060606094A2FFA29468
:1000E00008047E040810207E201008082A1C080836
:1000F0001C2A08081E101010100C1E0C1E0C303884
:100100003E3830060E3E0E06000000000000005F84
:1001100000000007000700147F147F14242A7F2AA0
:100120001223130864623649562050000807030062
:10013000001C2241000041221C002A1C7F1C2A08AE
:10014000083E080800807030000808080808000011
:1001500060600020100804023E5149453E00427F85
:10016000400072494949462141494D331814127FD4
:100170001027454545393C4A494931412111090774
:100180003649494936464949291E000014000000F5
:1001900040340000000814224114141414140041C7
:1001A00022140802015909063E415D594E7C121184
:1001B000127C7F494949363E414141227F414141BC
:1001C0003E7F494949417F090909013E4141517337
:1001D0007F0808087F00417F41002040413F017FA8
:1001E000081422417F404040407F021C027F7F0470
:1001F00008107F3E4141413E7F090909063E4151B9
:10020000215E7F09192946264949493203017F01A8
:10021000033F4040403F1F2040201F3F4038403FA9
:10022000631408146303047804036159494D4300BF
:100230007F4141410204081020004141417F0402F6
:10024000010204404040404000030708002054548D
:1002500078407F284444383844444428384444286B
:100260007F385454541800087E090218A4A49C78BE
:100270007F0804047800447D40002040403D007F1A
:100280001028440000417F40007C047804787C08FA
:100290000404783844444438FC18242418182424CE
:1002A00018FC7C08040408485454542404043F44B3
:1002B000243C4040207C1C2040201C3C4030403CE2
:1002C00044281028444C9090907C4464544C440042
:1002D00008364100000077000000413608000201A6
:1002E0000204023C2623263C1EA1A161123A404092
:1002F000207A385454555921555579412154547810
:1003000041215554784020545579400C1E527212A8
:100310003955555559395454545939555454580030
:1003200000457C410002457D420001457C40F029AA
:100330002429F0F0282528F07C54554500205454F9
:100340007C547C0A097F493249494932324848483D
:1003500032324A4848303A4141217A3A4240207884
:10036000009DA0A07D39444444393D4040403D3C7F
:1003700024FF2424487E4943662B2FFC2F2BFF09A2
:1003800029F620C0887E0903205454794100004496
:100390007D413048484A32384040227A007A0A0A81
:1003A000727D0D19317D2629292F282629292926F4
:1003B00030484D4020380808080808080808382F39
:1003C00010C8ACBA2F102834FA00007B00000814C3
:1003D0002A142222142A1408AA005500AAAA55AAEF
:1003E00055AA000000FF00101010FF00141414FFA5
:1003F000001010FF00FF1010F010F0141414FC0097
:100400001414F700FF0000FF00FF1414F404FC14A0
:100410001417101F10101F101F1414141F00101099
:1004200010F0000000001F101010101F101010100E
:10043000F010000000FF101010101010101010FF2E
:1004400010000000FF140000FF00FF00001F101745
:100450000000FC04F414141710171414F404F4002E
:1004600000FF00F714141414141414F700F71414F4
:1004700014171410101F101F141414F4141010F07B
:1004800010F000001F101F0000001F14000000FCEF
:10049000140000F010F01010FF10FF141414FF14DB
:1004A0001010101F00000000F010FFFFFFFFFFF012
:1004B000F0F0F0F0FFFFFF0000000000FFFF0F0F63
:1004C0000F0F0F38444438447C2A2A3E147E02021F
:1004D0000606027E027E0263554941633844443C6D
:1004E00004407E201E2006027E020299A5E7A599FF
:1004F0001C2A492A1C4C7201724C304A4D4D303036
:1005000048784830BC625A463D3E494949007E0120
:1005100001017E2A2A2A2A2A44445F444440514A3F
:10052000444040444A51400000FF0103E080FF0086
:100530000008086B6B083612362436060F090F06C2
:10054000000018180000001010003040FF010100EA
:100550001F01011E00191D1712003C3C3C3C00000D
:1005600000000000000000240027002A0000000016
:1005700000250028002B0000000000230026002991
:10058000000404040404040404020202020202033C
:100590000303030303010204081020408001020446
:1005A00008102001020408102000000007000201CA
:1005B00000000304060000000000000000003C03EF
:1005C000350311241FBECFEFD8E0DEBFCDBF11E051
:1005D000A0E0B1E0E6E9FAE102C005900D92A8348E
:1005E000B107D9F711E0A8E4B1E001C01D92AF371F
:1005F000B107E1F715E0C0ECD5E004C02297FE0199
:100600000E94230DCE3BD107C9F70E94410B0C94E9
:100610003E0D0C94000081309105E9F46F5F7F4F2F
:1006200019F588E491E06091080140910A01209158
:100630000C010E94160888E691E060E071E00E94DB
:10064000F90B809110019091110105969093700122
:1006500080936F010895892B39F46F5F7F4F21F4E8
:1006600088E691E00E94130C089580E090E06FEF1F
:100670007FEF0E940B03089581E090E06FEF7FEF22
:100680000E940B0308957F928F929F92AF92BF9228
:10069000CF92DF92EF92FF920F931F93CF93DF934E
:1006A0008824992470C088E491E060E070E00E94A2
:1006B000070860916F0170917001C4010E940E0DD6
:1006C0005B0188E491E00E94FE069C0160916F014D
:1006D00070917001C4010E940E0DEC01C095D0957F
:1006E000C20FD31F88E491E00E940207089762E0DE
:1006F00070E00E940E0D762ED72E24C080916C01E2
:1007000090916D01A816B906A0F488E691E0B501B4
:100710000E947B0BFC0188E491E0BE01472D5D2D1A
:10072000208101E010E0EE24FF24CC24C3940E9439
:10073000BA050894A108B10880916F0190917001E9
:10074000C81BD90B80916F0190917001209110010D
:1007500030911101821B930B8C0F9D1F97FD02C0DE
:10076000B7FECCCF88E491E00E94EA0760910E01C9
:1007700070910F01882777FD8095982F0E94410A7C
:100780000894811C911C20916F013091700180911F
:100790006C0190916D01289F8001299F100D389F59
:1007A000100D112488E491E00E94FE0620911001B2
:1007B00030911101021B130B01501040080F191F3B
:1007C0008016910608F46FCFDF91CF911F910F91A2
:1007D000FF90EF90DF90CF90BF90AF909F908F9061
:1007E0007F9008950F931F9308E411E0C80167E01C
:1007F0000E94FA07C80160E042E00E940707C801B2
:1008000061E042E00E940707C80162E042E00E9406
:100810000707C80163E042E00E9407071F910F919C
:100820000895FC01138212828CE191E09183808310
:1008300075836483578346837187608753874287B4
:10084000158A158614861786168621E0248B8FEF6D
:100850009FEF938B828B918B808B268B08952F92A9
:100860003F924F925F926F927F928F929F92AF9240
:10087000BF92CF92DF92EF92FF920F931F93DF937D
:10088000CF9300D000D0CDB7DEB73C017C836B8323
:100890006A015901FA82E982222433249801241B37
:1008A000350B37FF03C0309521953F4FC5014B8174
:1008B0005C81841B950B97FF03C0909581959F4F9A
:1008C000821793075CF481E0282E312CC601CB807F
:1008D000DC809C838B83C80185015C018B819C81BA
:1008E000A816B90644F4C501AB80BC809C838B83F9
:1008F000C80186016C012501AB81BC814A1A5B0AE3
:100900007801EC18FD08F7FE04C0F094E194F108BA
:10091000F394C016D10624F088248A94982C03C03E
:10092000B1E08B2E912CC20162E070E00E940E0DAE
:100930008B0125C0D301ED91FC912114310441F0CC
:100940000480F581E02DC301B6014B815C8107C0B5
:100950000480F581E02DC3016B817C81A601298192
:100960003A8109950E191F0917FF04C0C80CD91C3C
:10097000040D151DEB81FC813196FC83EB834B81CB
:100980005C81A416B506B4F60F900F900F900F90EF
:10099000CF91DF911F910F91FF90EF90DF90CF905B
:1009A000BF90AF909F908F907F906F905F904F908F
:1009B0003F902F9008954F925F926F927F928F9207
:1009C0009F92AF92BF92CF92DF92EF92FF920F93DE
:1009D0001F936C015B014A0139012801DC01ED9193
:1009E000FC910284F385E02D87010995D601ED91F4
:1009F000FC91A40141505040440D551D0284F385E3
:100A0000E02DC601B50193010995D601ED91FC9148
:100A10000084F185E02DC601B501A401920109957C
:100A2000D601ED91FC910894A108B108A60CB71C61
:100A30000084F185E02DC601B501A401920109955C
:100A40001F910F91FF90EF90DF90CF90BF90AF90EC
:100A50009F908F907F906F905F904F900895CF926E
:100A6000DF92EF92FF920F931F93DC016B017801ED
:100A7000ED91FC918A0101501040020F131F068076
:100A8000F781E02D960109951F910F91FF90EF904E
:100A9000DF90CF900895CF92DF92EF92FF920F9365
:100AA0001F93DC016A01C9017801ED91FC91119756
:100AB0009B0121503040280F391F0680F781E02D1F
:100AC000CD01860109951F910F91FF90EF90DF9066
:100AD000CF9008956F927F928F929F92AF92BF9224
:100AE000CF92DF92EF92FF920F931F93CF93DF93FA
:100AF0005C013A0169014801EB01C60ED71E0DC029
:100B0000D501ED91FC910084F185E02DC501BE0178
:100B1000A3019401870109952196CC15DD0584F385
:100B2000DF91CF911F910F91FF90EF90DF90CF90C9
:100B3000BF90AF909F908F907F906F900895EF92AD
:100B4000FF920F931F93FC017B01A081B18120854F
:100B50003185028513851E960D90BC91A02D60E015
:100B600070E040E050E0FD0109951F910F91FF906A
:100B7000EF9008952F923F924F925F926F927F92E3
:100B80008F929F92AF92BF92CF92DF92EF92FF929D
:100B90000F931F93DF93CF93CDB7DEB72F970FB689
:100BA000F894DEBF0FBECDBF5C015E834D83188716
:100BB0000F83FA86E986CB86DC0118968D919C918D
:100BC0001997681779070CF0A4C01A968D919C911B
:100BD0001B97481759070CF09CC0EC2DF0E0FF87DD
:100BE000EE87CF01880F991F8E0F9F1F880F991FC7
:100BF000860F971F181619060CF08BC0CF01F3E073
:100C0000880F991FFA95E1F7840F951F181619069A
:100C10000CF07FC085E0289FA00111245A834983EE
:100C20002B011B011C825C81553011F480E005C052
:100C3000E981FA81E859FF4F84912C863D866D80C9
:100C40007E8043011B82C82EDD2480FF1CC0D5019D
:100C5000ED91FC91BB85B13049F40480F581E02D24
:100C6000C501B201A3012F81388522C00684F78512
:100C7000E02DC5016C857D85A4012E853F85890108
:100C8000EF80F88423C0E985FA852F813885E21743
:100C9000F307E9F0D501ED91FC91BB85B13051F43A
:100CA0000480F581E02DC501B201A30129853A85B3
:100CB00009950DC00684F785E02DC5016C857D85FD
:100CC000A4012E853F858901E984FA840995EB8189
:100CD000EF5FEB832E853F85820E931E0894611C87
:100CE000711CE83021F0D594C7948C2DACCF3C8199
:100CF0003F5F3C834E855F85240E351E0894411C62
:100D0000511C89819A8101969A838983363009F032
:100D10008ACF2F960FB6F894DEBF0FBECDBFCF910E
:100D2000DF911F910F91FF90EF90DF90CF90BF90D8
:100D3000AF909F908F907F906F905F904F903F907B
:100D40002F900895CF92EF92FF920F931F93CF931E
:100D5000DF93EC01262F6A3061F42C8930E003E048
:100D6000220F331F0A95E1F78E859F85820F931F0F
:100D700037C06D30C9F16C857D854E855F850889EA
:100D80001989EA88FB88CC880E94BA052C8986E0FC
:100D9000289FB00111248C859D85680F791F7D8760
:100DA0006C878E89882301F1422F50E08AEF9FEFF4
:100DB0009C01429FC001439F900D529F900D1124B2
:100DC00028853985820F931F861797076CF413E0E7
:100DD000440F551F1A95E1F78E859F85840F951F47
:100DE0009F878E871D861C8681E090E0DF91CF91E2
:100DF0001F910F91FF90EF90CF900895FC01808597
:100E000091850895FC018285938508950895DC01FC
:100E10005E96ED91FC915F97E60FF11D408308957A
:100E2000CF92DF92EF92FF921F93CF93DF93EC016B
:100E3000542F69019D89992391F0923020F0888583
:100E40008150861B682F892F8150823018F44A8583
:100E50004150451B90FF03C0862F642F482F67FD2C
:100E600083C0A62FBB27A7FDB095EC80FD80AE15F3
:100E7000BF050CF079C0242F30E08E819F812817A8
:100E800039070CF071C01B8D73E0359527957A9565
:100E9000E1F7812F90E0FC012E9FC0012F9F900D64
:100EA0003E9F900D112453E0B595A7955A95E1F713
:100EB000EC8DFD8DE80FF91FEA0FFB1F2081362F07
:100EC00037704770622F70E0EE8DFF8DE60FF71FD1
:100ED000E081E23018F087E0831B382F8E2F81509D
:100EE000823018F487E0841B482FE0FF03C0832F73
:100EF000342F482FCB01612F70E00E94FA0C619FC4
:100F0000802D1124281B220F220F220F230F660F82
:100F1000660F660F460F50E0CA0133E0959587953E
:100F20003A95E1F7BC016E9DC0016F9D900D7E9DCD
:100F3000900D1124332727FD3095820F931FE88DE4
:100F4000F98DE80FF91F4770507081E090E002C002
:100F5000880F991F4A95E2F72081CD2811F0282BA0
:100F600002C0809528232083DF91CF911F91FF90AD
:100F7000EF90DF90CF9008950F931F93CF93DF935F
:100F8000EC01162F042F8F8960E00E940E0B912F29
:100F900091508A8D890F88501EBD0DB407FEFDCF7C
:100FA0002EB5193010F0E02F05C0E88DF98DE80F4F
:100FB000F11DE081EEBD0DB407FEFDCF2EB59817F3
:100FC00050F38F8961E00E940E0BDF91CF911F914A
:100FD0000F9108951F93CF93DF93EC0118E0CE019A
:100FE000612F40E00E94BC071150C9F7DF91CF91FB
:100FF0001F910895462F6AE00E94BC07089540E0C3
:10100000662309F441E06CE00E94BC070895FC01EE
:10101000808D918D672B19F460E070E002C06FEF56
:1010200070E0428D50E00E94300D0895FF920F93C2
:101030001F93CF93DF93EC01F62E142F022F642F12
:1010400070E0F3E0660F771FFA95E1F7422F50E06A
:10105000E3E0440F551FEA95E1F70E94110484E391
:1010600091E099838883FF8A019F002D11241B8FB3
:10107000802F880F880F880F8A8F90E00E949E082B
:10108000888F998F802F90E00E949E088E8F9F8F6F
:10109000802F90E00E949E088C8F9D8F20E00DC0D5
:1010A000822F90E0EC8DFD8DE80FF91F2083EE8DEF
:1010B000FF8DE80FF91F10822F5F201788F30E9421
:1010C00087088F8961E00E94A20ACE0160E070E08B
:1010D0000E940708CE016FE040E00E94BC07CE01ED
:1010E0006BE047E00E94BC07CE0169E040E00E944F
:1010F000BC07CE0160E00E94FF07CE0167E00E94BE
:10110000FA07DF91CF911F910F91FF9008958AE028
:1011100061E00E940E0B8AE061E00E94A20A8CB599
:1011200080618CBD8CB580648CBD8DE061E00E94D7
:10113000A20A8BE061E00E94A20A08950F931F9318
:10114000CF93DF93BC018230910510F462E070E030
:10115000E0917D01F0917E0140E050E0A0E0B0E040
:1011600024C08081918186179707D0F08617970752
:1011700071F482819381109729F013969C938E933A
:1011800012972CC090937E0180937D0127C041155A
:10119000510519F08417950718F48D01AC01EF0182
:1011A000DF01828193819C01F9013097D1F64115CD
:1011B0005105F9F0CA01861B970B8430910580F424
:1011C0008A819B810115110521F0F80193838283A7
:1011D00004C090937E0180937D01FE01329645C04C
:1011E000FE01E80FF91F6193719302979983888339
:1011F0003CC080917B0190917C01892B41F48091CE
:1012000014019091150190937C0180937B01409192
:101210001601509117014115510541F44DB75EB7C4
:101220008091120190911301481B590B20917B0171
:1012300030917C0124173507B0F4CA01821B930B4F
:101240008617970780F0AB014E5F5F4F84179507B5
:1012500050F0420F531F50937C0140937B01F901E2
:101260006193719302C0E0E0F0E0CF01DF91CF9194
:101270001F910F910895CF93DF939C01009709F47C
:101280008FC0EC0122971B821A8260917D017091C0
:101290007E016115710581F488819981820F931F08
:1012A00020917B0130917C012817390739F5D093C3
:1012B0007C01C0937B0174C0DB0140E050E0AC17BF
:1012C000BD0708F1BB83AA83FE0121913191E20F92
:1012D000F31FAE17BF0779F48D919C911197280FDA
:1012E000391F2E5F3F4F3983288312968D919C9131
:1012F00013979B838A834115510571F4D0937E0126
:10130000C0937D014DC012968D919C911397AD01B4
:10131000009711F0DC01D3CFDA011396DC93CE9362
:101320001297FA0121913191E20FF31FCE17DF07D7
:1013300069F488819981280F391F2E5F3F4FFA0188
:10134000318320838A819B8193838283E0E0F0E074
:10135000DB0112968D919C911397009719F0BC01B7
:10136000FD01F6CFAB014E5F5F4FDB018D919C918C
:10137000840F951F20917B0130917C01281739073C
:1013800079F4309729F410927E0110927D0102C009
:10139000138212824250504050937C0140937B0153
:1013A000DF91CF9108951F920F920FB60F921124E3
:1013B0002F933F938F939F93AF93BF93809175012A
:1013C00090917601A0917701B091780130917901E7
:1013D0000196A11DB11D232F2D5F2D3720F02D5714
:1013E0000196A11DB11D2093790180937501909301
:1013F0007601A0937701B09378018091710190916B
:101400007201A0917301B09174010196A11DB11DEB
:101410008093710190937201A0937301B093740152
:10142000BF91AF919F918F913F912F910F900FBEE0
:101430000F901F9018959FB7F894209171013091EB
:101440007201409173015091740186B5A89B06C04A
:101450008F3F21F02F5F3F4F4F4F5F4F9FBF542F64
:10146000432F322F2227280F311D411D511D82E0AD
:10147000220F331F441F551F8A95D1F7B901CA01A6
:101480000895EF92FF920F931F93CF93DF937B0109
:101490008C010E941B0AEB010EC00E941B0A6C1BF0
:1014A0007D0B685E7340C8F30894E108F1080109F8
:1014B0001109C851DC4FE114F1040105110569F768
:1014C000DF91CF911F910F91FF90EF900895789445
:1014D00084B5826084BD84B5816084BD85B5826039
:1014E00085BD85B5816085BDEEE6F0E080818160D7
:1014F0008083E1E8F0E010828081826080838081D7
:1015000081608083E0E8F0E0808181608083E1EBAE
:10151000F0E0808184608083E0EBF0E08081816096
:101520008083EAE7F0E0808184608083808182604C
:101530008083808181608083808180688083109235
:10154000C1000895CF93DF93482F50E0CA018B5616
:101550009A4FFC0134914F575A4FFA0184918823D6
:1015600069F190E0880F991FFC01ED59FA4FA591A0
:10157000B491FC01E359FA4FC591D491662351F41B
:101580002FB7F8948C91932F909589238C93888111
:1015900089230BC0623061F42FB7F8948C91932F9C
:1015A000909589238C938881832B88832FBF06C0D5
:1015B0009FB7F8948C91832B8C939FBFDF91CF9131
:1015C0000895833071F0843028F48130A1F08230A6
:1015D00021F514C08630B1F08730D1F08430E9F4C1
:1015E00004C0809180008F7703C0809180008F7D40
:1015F00080938000089584B58F7702C084B58F7D75
:1016000084BD08958091B0008F778093B0000895D5
:101610008091B0008F7D8093B0000895FF920F936A
:101620001F93F62E482F50E0CA0187559A4FFC01B0
:101630002491CA018B569A4FFC0114914F575A4F6F
:10164000FA0104910023C9F0222319F0822F0E948D
:10165000E10AE02FF0E0EE0FFF1FE359FA4FA591EA
:10166000B4919FB7F894FF2021F48C9110958123B9
:1016700002C08C91812B8C939FBF1F910F91FF9083
:101680000895CF93DF930E94670A0E94F203C0E09F
:10169000D0E00E9443032097E1F30E940000F9CFBD
:1016A0000895CF92DF92EF92FF920F931F93CF9303
:1016B000DF937C016B018A01C0E0D0E00FC0D6014E
:1016C0006D916D01D701ED91FC910190F081E02DBC
:1016D000C7010995C80FD91F015010400115110508
:1016E00071F7CE01DF91CF911F910F91FF90EF9095
:1016F000DF90CF900895FC019B018481958168174C
:10170000790728F4608171816115710529F41092BF
:101710007A016AE771E002C0620F731FCB0108957E
:101720000F931F93CF93DF93EC018B016F5F7F4F7C
:10173000888199810E94190C009711F480E005C0FE
:10174000998388831B830A8381E0DF91CF911F9166
:101750000F910895CF93DF93EC0188819981892BB4
:1017600029F08A819B818617970760F4CE010E9439
:10177000900B882341F08C819D81892B19F4E8819D
:10178000F981108281E0DF91CF910895CF93DF93AB
:10179000EC0188819981009711F00E943B09198220
:1017A00018821D821C821B821A82DF91CF910895BC
:1017B000EF92FF920F931F93CF93DF93EC017B0186
:1017C0008A01BA010E94AA0B882321F4CE010E944B
:1017D000C60B07C01D830C8388819981B7010E94C5
:1017E000370DCE01DF91CF911F910F91FF90EF90B8
:1017F0000895CF93DF93EC01198218821B821A821D
:101800001D821C821E826115710551F0DB010D9055
:101810000020E9F71197A61BB70BAD010E94D80B6A
:10182000DF91CF910895FC01808191810E943B0955
:1018300008956F927F928F929F92AF92BF92CF92B4
:10184000DF92EF92FF920F931F93CF93DF938C0160
:10185000009729F4CB010E949E088C01BBC08EEF3B
:10186000E82E8FEFF82EE00EF11E4801860E971E2F
:101870008E149F0408F4ACC0D7014D915C91119770
:1018800046175707B8F04530510508F4A3C0CA0100
:1018900004978617970708F49DC042505040461B96
:1018A000570BF401419351936D937C93CF010E94A8
:1018B0003B0990C05B01A41AB50A3801640E751E7D
:1018C000A0917D01B0917E01E0E0F0E0CC24DD2428
:1018D00047C0A615B705A9F5CD91DC911197CE01AA
:1018E00002968A159B0568F1CE018A199B0902961A
:1018F00012962C91129713963C91059758F0F4018B
:1019000022833383CA19DB09D183C083D7016D9346
:101910007C9309C04E5F5F4F4C0F5D1FF7015183F1
:101920004083C901FC01C114D10431F0D6011396E2
:10193000FC93EE9312974EC0F0937E01E0937D01ED
:1019400049C08D919C911197E817F90708F4FC01A3
:101950006D0112968C91129713969C919C01D9015E
:10196000109709F0B6CF80917B0190917C0186158C
:101970009705E9F4E617F707D0F4209116013091A6
:1019800017012115310541F42DB73EB780911201A1
:1019900090911301281B390B82169306C8F490927C
:1019A0007C0180927B01F7017183608313C0CB01BE
:1019B0000E949E08EC01009759F0D7014D915C916F
:1019C000B8010E94270DC8010E943B098E0102C088
:1019D00000E010E0C801DF91CF911F910F91FF90BF
:1019E000EF90DF90CF90BF90AF909F908F907F90BF
:1019F0006F900895AA1BBB1B51E107C0AA1FBB1F14
:101A0000A617B70710F0A61BB70B881F991F5A958A
:101A1000A9F780959095BC01CD01089597FB092EFB
:101A200007260AD077FD04D0E5DF06D000201AF49F
:101A3000709561957F4F0895F6F7909581959F4F2A
:101A40000895EE0FFF1F0590F491E02D0994FB011E
:101A5000DC0102C001900D9241505040D8F708952A
:101A6000DC0101C06D9341505040E0F70895FB0147
:101A7000DC0101900D920020E1F7089515E0C0EC23
:101A8000D5E004C0FE010E94230D2296C23CD1077E
:061A9000C9F7F894FFCF36
:101A960041726475696E6F000A000400010014004B
:101AA600010080007F01000000000000A206510B2B
:101AB600500B2F042F054B05DB046A059F0506070F
:101AC60000000000A206510B10072F042F054B053E
:081AD600DB046A05070806079E
:00000001FF
