S01700004763634170706C69636174696F6E312E737265635B
S11300000C9434000C943E000C943E000C943E007E
S11300100C943E000C943E000C943E000C943E0064
S11300200C943E000C943E000C943E000C943E0054
S11300300C943E000C943E000C943E000C943E0044
S11300400C943E000C943E000C943E000C943E0034
S11300500C943E000C943E000C943E000C943E0024
S11300600C943E000C943E0011241FBECFEFD8E048
S1130070DEBFCDBF0E9440000C9449020C940000E6
S11300808FEF8AB986E880937A0010927C007724F7
S11300907394612CCAE7D0E00F2EF8E7EF2EF12C11
S11300A0F02DCC24C394D12C09E110E0262C372C5C
S11300B04701560104C02224239401C0212C8881C5
S11300C080648883888186FDFDCFF401608171811D
S11300D06115710509F4B501211048C03BB880E0F1
S11300E090E00E9430012B013C0120E030E04AE71F
S11300F053E40E94BE01C62EE72ED82EF92E20E02E
S113010030E040E85FE30E94000188233CF120E0F6
S11301103FEF4FE757E46C2D7E2D8D2D9F2D0E94D0
S1130120BA011816A4F420E030E040E251E4C3011F
S1130130B2010E94BE010E9404016115710591F093
S1130140C8010197F1F761507109D1F70BC06C2D0B
S11301507E2D8D2D9F2D0E94040101C0B501CB0180
S11301600197F1F7330C0AF0AACFA5CF3BB880E092
S113017090E00E9430012B013C0120E030E04AE78E
S113018053E40E94BE01C62EE72ED82EF92E20E09D
S113019030E040E85FE30E94000188233CF120E066
S11301A03FEF4FE757E46C2D7E2D8D2D9F2D0E9440
S11301B0BA011816A4F420E030E040E251E4C3018F
S11301C0B2010E94BE010E9404016115710591F003
S11301D0C8010197F1F761507109D1F70BC06C2D7B
S11301E07E2D8D2D9F2D0E94040101C0B501CB01F0
S11301F00197F1F73694F1E0F31508F460CF5ECF80
S11302006CD008F481E0089594D088F09F5790F062
S1130210B92F9927B751A0F0D1F0660F771F881F27
S1130220991F1AF0BA95C9F712C0B13081F09BD06A
S1130230B1E0089598C0672F782F8827B85F39F008
S1130240B93FCCF3869577956795B395D9F73EF486
S113025090958095709561957F4F8F4F9F4F08952E
S1130260E89409C097FB3EF490958095709561954C
S11302707F4F8F4F9F4F9923A9F0F92F96E9BB2702
S11302809395F695879577956795B795F111F8CF7E
S1130290FAF4BB0F11F460FF1BC06F5F7F4F8F4FE9
S11302A09F4F16C0882311F096E911C0772321F0DF
S11302B09EE8872F762F05C0662371F096E8862F77
S11302C070E060E02AF09A95660F771F881FDAF7CE
S11302D0880F9695879597F90895990F0008550FFB
S11302E0AA0BE0E8FEEF16161706E807F907C0F0B8
S11302F012161306E407F50798F0621B730B840BC0
S1130300950B39F40A2661F0232B242B252B21F499
S113031008950A2609F4A140A6958FEF811D811D39
S1130320089557FD9058440F551F59F05F3F71F0E1
S11303304795880F97FB991F61F09F3F79F0879548
S11303400895121613061406551FF2CF4695F1DFD1
S113035008C0161617061806991FF1CF8695710561
S1130360610508940895E894BB2766277727CB0195
S113037097F90895B2DF08F48FEF08950BD078C091
S113038069D028F06ED018F0952309F05AC05FC0E8
S11303901124EACFC6DFA0F3959FD1F3950F50E067
S11303A0551F629FF001729FBB27F00DB11D639F23
S11303B0AA27F00DB11DAA1F649F6627B00DA11DC9
S11303C0661F829F2227B00DA11D621F739FB00D6F
S11303D0A11D621F839FA00D611D221F749F3327DF
S11303E0A00D611D231F849F600D211D822F762F78
S11303F06A2F11249F5750408AF0E1F088234AF075
S1130400EE0FFF1FBB1F661F771F881F91505040C0
S1130410A9F79E3F510570F014C0A6CF5F3FECF3DF
S1130420983EDCF3869577956795B795F795E795AC
S11304309F5FC1F7FE2B880F911D9695879597F9BD
S1130440089597F99F6780E870E060E008959FEF52
S113045080EC089500240A94161617061806090657
S1130460089500240A941216130614060506089526
S1130470092E0394000C11F4882352F0BB0F40F4AE
S1130480BF2B11F460FF04C06F5F7F4F8F4F9F4FEE
S10904900895F894FFCF6B
S9030000FC
